{
  "contractName": "Voting",
  "abi": [
    {
      "anonymous": false,
      "inputs": [
        {
          "indexed": false,
          "internalType": "uint256",
          "name": "id",
          "type": "uint256"
        },
        {
          "indexed": false,
          "internalType": "address",
          "name": "creator",
          "type": "address"
        },
        {
          "indexed": false,
          "internalType": "string",
          "name": "question",
          "type": "string"
        },
        {
          "indexed": false,
          "internalType": "string[]",
          "name": "options",
          "type": "string[]"
        }
      ],
      "name": "PollCreated",
      "type": "event"
    },
    {
      "anonymous": false,
      "inputs": [
        {
          "indexed": false,
          "internalType": "uint256",
          "name": "id",
          "type": "uint256"
        },
        {
          "indexed": false,
          "internalType": "address",
          "name": "deletedBy",
          "type": "address"
        }
      ],
      "name": "PollDeleted",
      "type": "event"
    },
    {
      "anonymous": false,
      "inputs": [
        {
          "indexed": false,
          "internalType": "uint256",
          "name": "id",
          "type": "uint256"
        }
      ],
      "name": "PollFinalized",
      "type": "event"
    },
    {
      "anonymous": false,
      "inputs": [
        {
          "indexed": false,
          "internalType": "uint256",
          "name": "id",
          "type": "uint256"
        },
        {
          "indexed": false,
          "internalType": "address",
          "name": "voter",
          "type": "address"
        },
        {
          "indexed": false,
          "internalType": "uint256",
          "name": "optionIndex",
          "type": "uint256"
        }
      ],
      "name": "PollVoted",
      "type": "event"
    },
    {
      "inputs": [
        {
          "internalType": "address",
          "name": "",
          "type": "address"
        },
        {
          "internalType": "uint256",
          "name": "",
          "type": "uint256"
        }
      ],
      "name": "hasVotedOnPoll",
      "outputs": [
        {
          "internalType": "bool",
          "name": "",
          "type": "bool"
        }
      ],
      "stateMutability": "view",
      "type": "function",
      "constant": true
    },
    {
      "inputs": [
        {
          "internalType": "uint256",
          "name": "",
          "type": "uint256"
        },
        {
          "internalType": "uint256",
          "name": "",
          "type": "uint256"
        }
      ],
      "name": "pollIdToOptions",
      "outputs": [
        {
          "internalType": "string",
          "name": "option",
          "type": "string"
        },
        {
          "internalType": "uint256",
          "name": "votes",
          "type": "uint256"
        }
      ],
      "stateMutability": "view",
      "type": "function",
      "constant": true
    },
    {
      "inputs": [
        {
          "internalType": "uint256",
          "name": "",
          "type": "uint256"
        }
      ],
      "name": "pollIdToPoll",
      "outputs": [
        {
          "internalType": "uint256",
          "name": "id",
          "type": "uint256"
        },
        {
          "internalType": "address",
          "name": "creator",
          "type": "address"
        },
        {
          "internalType": "string",
          "name": "question",
          "type": "string"
        },
        {
          "internalType": "bool",
          "name": "finalized",
          "type": "bool"
        }
      ],
      "stateMutability": "view",
      "type": "function",
      "constant": true
    },
    {
      "inputs": [],
      "name": "pollsCount",
      "outputs": [
        {
          "internalType": "uint256",
          "name": "",
          "type": "uint256"
        }
      ],
      "stateMutability": "view",
      "type": "function",
      "constant": true
    },
    {
      "inputs": [],
      "name": "pollCount",
      "outputs": [
        {
          "internalType": "uint256",
          "name": "",
          "type": "uint256"
        }
      ],
      "stateMutability": "view",
      "type": "function",
      "constant": true
    },
    {
      "inputs": [
        {
          "internalType": "string",
          "name": "_question",
          "type": "string"
        },
        {
          "internalType": "string[]",
          "name": "_options",
          "type": "string[]"
        }
      ],
      "name": "createPoll",
      "outputs": [],
      "stateMutability": "nonpayable",
      "type": "function"
    },
    {
      "inputs": [
        {
          "internalType": "uint256",
          "name": "_pollId",
          "type": "uint256"
        },
        {
          "internalType": "uint256",
          "name": "_optionIndex",
          "type": "uint256"
        }
      ],
      "name": "vote",
      "outputs": [],
      "stateMutability": "nonpayable",
      "type": "function"
    },
    {
      "inputs": [
        {
          "internalType": "uint256",
          "name": "_pollId",
          "type": "uint256"
        }
      ],
      "name": "finalizePoll",
      "outputs": [],
      "stateMutability": "nonpayable",
      "type": "function"
    },
    {
      "inputs": [
        {
          "internalType": "uint256",
          "name": "_pollId",
          "type": "uint256"
        }
      ],
      "name": "getPoll",
      "outputs": [
        {
          "internalType": "address",
          "name": "creator",
          "type": "address"
        },
        {
          "internalType": "string",
          "name": "question",
          "type": "string"
        },
        {
          "internalType": "string[]",
          "name": "options",
          "type": "string[]"
        },
        {
          "internalType": "uint256[]",
          "name": "votes",
          "type": "uint256[]"
        },
        {
          "internalType": "bool",
          "name": "finalized",
          "type": "bool"
        }
      ],
      "stateMutability": "view",
      "type": "function",
      "constant": true
    },
    {
      "inputs": [
        {
          "internalType": "address",
          "name": "user",
          "type": "address"
        },
        {
          "internalType": "uint256",
          "name": "_pollId",
          "type": "uint256"
        }
      ],
      "name": "hasVoted",
      "outputs": [
        {
          "internalType": "bool",
          "name": "",
          "type": "bool"
        }
      ],
      "stateMutability": "view",
      "type": "function",
      "constant": true
    },
    {
      "inputs": [
        {
          "internalType": "uint256",
          "name": "_pollId",
          "type": "uint256"
        }
      ],
      "name": "deletePoll",
      "outputs": [],
      "stateMutability": "nonpayable",
      "type": "function"
    }
  ],
  "bytecode": "0x60806040526000805534801561001457600080fd5b50611f7e806100246000396000f3fe608060405234801561001057600080fd5b50600436106100a95760003560e01c806356597e4f1161007157806356597e4f1461017f5780637e3d71c31461019b5780639207891d146101b75780639c4ebd82146101d55780639eca06b814610206578063b384abef14610236576100a9565b8063179d760d146100ae5780631a8cbcaa146100cc5780631f35b51d146101005780632425795a1461011c578063425458251461014f575b600080fd5b6100b6610252565b6040516100c39190611adb565b60405180910390f35b6100e660048036038101906100e191906114b6565b610258565b6040516100f7959493929190611908565b60405180910390f35b61011a600480360381019061011591906114b6565b610699565b005b610136600480360381019061013191906114b6565b610859565b6040516101469493929190611b72565b60405180910390f35b6101696004803603810190610164919061140e565b61093e565b6040516101769190611970565b60405180910390f35b610199600480360381019061019491906114b6565b6109a6565b005b6101b560048036038101906101b0919061144a565b610b4b565b005b6101bf610df0565b6040516101cc9190611adb565b60405180910390f35b6101ef60048036038101906101ea91906114df565b610df9565b6040516101fd92919061198b565b60405180910390f35b610220600480360381019061021b919061140e565b610ec2565b60405161022d9190611970565b60405180910390f35b610250600480360381019061024b91906114df565b610ef1565b005b60005481565b60006060806060600080861415801561027357506000548611155b6102b2576040517f08c379a00000000000000000000000000000000000000000000000000000000081526004016102a990611a3b565b60405180910390fd5b600060016000888152602001908152602001600020905060006002600089815260200190815260200160002080549050905060008167ffffffffffffffff811115610326577f4e487b7100000000000000000000000000000000000000000000000000000000600052604160045260246000fd5b60405190808252806020026020018201604052801561035957816020015b60608152602001906001900390816103445790505b50905060008267ffffffffffffffff81111561039e577f4e487b7100000000000000000000000000000000000000000000000000000000600052604160045260246000fd5b6040519080825280602002602001820160405280156103cc5781602001602082028036833780820191505090505b50905060005b838110156105b857600260008c81526020019081526020016000208181548110610425577f4e487b7100000000000000000000000000000000000000000000000000000000600052603260045260246000fd5b9060005260206000209060020201600001805461044190611e01565b80601f016020809104026020016040519081016040528092919081815260200182805461046d90611e01565b80156104ba5780601f1061048f576101008083540402835291602001916104ba565b820191906000526020600020905b81548152906001019060200180831161049d57829003601f168201915b50505050508382815181106104f8577f4e487b7100000000000000000000000000000000000000000000000000000000600052603260045260246000fd5b6020026020010181905250600260008c8152602001908152602001600020818154811061054e577f4e487b7100000000000000000000000000000000000000000000000000000000600052603260045260246000fd5b906000526020600020906002020160010154828281518110610599577f4e487b7100000000000000000000000000000000000000000000000000000000600052603260045260246000fd5b60200260200101818152505080806105b090611e33565b9150506103d2565b508360010160009054906101000a900473ffffffffffffffffffffffffffffffffffffffff168460020183838760030160009054906101000a900460ff1683805461060290611e01565b80601f016020809104026020016040519081016040528092919081815260200182805461062e90611e01565b801561067b5780601f106106505761010080835404028352916020019161067b565b820191906000526020600020905b81548152906001019060200180831161065e57829003601f168201915b50505050509350985098509850985098505050505091939590929450565b600081141580156106ac57506000548111155b6106eb576040517f08c379a00000000000000000000000000000000000000000000000000000000081526004016106e290611a3b565b60405180910390fd5b60006001600083815260200190815260200160002090503373ffffffffffffffffffffffffffffffffffffffff168160010160009054906101000a900473ffffffffffffffffffffffffffffffffffffffff1673ffffffffffffffffffffffffffffffffffffffff1614610794576040517f08c379a000000000000000000000000000000000000000000000000000000000815260040161078b90611abb565b60405180910390fd5b6002600083815260200190815260200160002060006107b391906111bf565b600160008381526020019081526020016000206000808201600090556001820160006101000a81549073ffffffffffffffffffffffffffffffffffffffff021916905560028201600061080691906111e3565b6003820160006101000a81549060ff021916905550507f05b0e65544d0436a1daaedf13ce02b014ed3a784e1cc64858063a94d228c989d823360405161084d929190611af6565b60405180910390a15050565b60016020528060005260406000206000915090508060000154908060010160009054906101000a900473ffffffffffffffffffffffffffffffffffffffff16908060020180546108a890611e01565b80601f01602080910402602001604051908101604052809291908181526020018280546108d490611e01565b80156109215780601f106108f657610100808354040283529160200191610921565b820191906000526020600020905b81548152906001019060200180831161090457829003601f168201915b5050505050908060030160009054906101000a900460ff16905084565b6000600360008473ffffffffffffffffffffffffffffffffffffffff1673ffffffffffffffffffffffffffffffffffffffff168152602001908152602001600020600083815260200190815260200160002060009054906101000a900460ff16905092915050565b600081141580156109b957506000548111155b6109f8576040517f08c379a00000000000000000000000000000000000000000000000000000000081526004016109ef90611a3b565b60405180910390fd5b60006001600083815260200190815260200160002090503373ffffffffffffffffffffffffffffffffffffffff168160010160009054906101000a900473ffffffffffffffffffffffffffffffffffffffff1673ffffffffffffffffffffffffffffffffffffffff1614610aa1576040517f08c379a0000000000000000000000000000000000000000000000000000000008152600401610a9890611a1b565b60405180910390fd5b8060030160009054906101000a900460ff1615610af3576040517f08c379a0000000000000000000000000000000000000000000000000000000008152600401610aea90611a7b565b60405180910390fd5b60018160030160006101000a81548160ff0219169083151502179055507f0df714c47b343374075164edc8bdbacce890f6311b37904869c00a0d8d55a13582604051610b3f9190611adb565b60405180910390a15050565b6000825111610b8f576040517f08c379a0000000000000000000000000000000000000000000000000000000008152600401610b8690611a5b565b60405180910390fd5b6001815111610bd3576040517f08c379a0000000000000000000000000000000000000000000000000000000008152600401610bca90611a9b565b60405180910390fd5b600080815480929190610be590611e33565b91905055506000604051806080016040528060005481526020013373ffffffffffffffffffffffffffffffffffffffff1681526020018481526020016000151581525090508060016000805481526020019081526020016000206000820151816000015560208201518160010160006101000a81548173ffffffffffffffffffffffffffffffffffffffff021916908373ffffffffffffffffffffffffffffffffffffffff1602179055506040820151816002019080519060200190610cac929190611223565b5060608201518160030160006101000a81548160ff02191690831515021790555090505060005b8251811015610dab5760026000805481526020019081526020016000206040518060400160405280858481518110610d34577f4e487b7100000000000000000000000000000000000000000000000000000000600052603260045260246000fd5b60200260200101518152602001600081525090806001815401808255809150506001900390600052602060002090600202016000909190919091506000820151816000019080519060200190610d8b929190611223565b506020820151816001015550508080610da390611e33565b915050610cd3565b507f31c351ffa8603902e6b01b5c4be019eec72feadcbf2b19267909535f36f46479600054338585604051610de39493929190611b1f565b60405180910390a1505050565b60008054905090565b60026020528160005260406000208181548110610e1557600080fd5b906000526020600020906002020160009150915050806000018054610e3990611e01565b80601f0160208091040260200160405190810160405280929190818152602001828054610e6590611e01565b8015610eb25780601f10610e8757610100808354040283529160200191610eb2565b820191906000526020600020905b815481529060010190602001808311610e9557829003601f168201915b5050505050908060010154905082565b60036020528160005260406000206020528060005260406000206000915091509054906101000a900460ff1681565b60008214158015610f0457506000548211155b610f43576040517f08c379a0000000000000000000000000000000000000000000000000000000008152600401610f3a90611a3b565b60405180910390fd5b60006001600084815260200190815260200160002090508060030160009054906101000a900460ff1615610fac576040517f08c379a0000000000000000000000000000000000000000000000000000000008152600401610fa3906119bb565b60405180910390fd5b60026000848152602001908152602001600020805490508210611004576040517f08c379a0000000000000000000000000000000000000000000000000000000008152600401610ffb906119db565b60405180910390fd5b600360003373ffffffffffffffffffffffffffffffffffffffff1673ffffffffffffffffffffffffffffffffffffffff168152602001908152602001600020600084815260200190815260200160002060009054906101000a900460ff16156110a2576040517f08c379a0000000000000000000000000000000000000000000000000000000008152600401611099906119fb565b60405180910390fd5b60016002600085815260200190815260200160002083815481106110ef577f4e487b7100000000000000000000000000000000000000000000000000000000600052603260045260246000fd5b9060005260206000209060020201600101600082825461110f9190611d21565b925050819055506001600360003373ffffffffffffffffffffffffffffffffffffffff1673ffffffffffffffffffffffffffffffffffffffff168152602001908152602001600020600085815260200190815260200160002060006101000a81548160ff0219169083151502179055507f41b9ea38e0dca627a5a8588a7edd2198d6d8e43ec5a6161fa126559a0eb570148333846040516111b293929190611bbe565b60405180910390a1505050565b50805460008255600202906000526020600020908101906111e091906112a9565b50565b5080546111ef90611e01565b6000825580601f106112015750611220565b601f01602090049060005260206000209081019061121f91906112d8565b5b50565b82805461122f90611e01565b90600052602060002090601f0160209004810192826112515760008555611298565b82601f1061126a57805160ff1916838001178555611298565b82800160010185558215611298579182015b8281111561129757825182559160200191906001019061127c565b5b5090506112a591906112d8565b5090565b5b808211156112d457600080820160006112c391906111e3565b6001820160009055506002016112aa565b5090565b5b808211156112f15760008160009055506001016112d9565b5090565b600061130861130384611c26565b611bf5565b9050808382526020820190508260005b85811015611348578135850161132e88826113cf565b845260208401935060208301925050600181019050611318565b5050509392505050565b600061136561136084611c52565b611bf5565b90508281526020810184848401111561137d57600080fd5b611388848285611dbf565b509392505050565b60008135905061139f81611f1a565b92915050565b600082601f8301126113b657600080fd5b81356113c68482602086016112f5565b91505092915050565b600082601f8301126113e057600080fd5b81356113f0848260208601611352565b91505092915050565b60008135905061140881611f31565b92915050565b6000806040838503121561142157600080fd5b600061142f85828601611390565b9250506020611440858286016113f9565b9150509250929050565b6000806040838503121561145d57600080fd5b600083013567ffffffffffffffff81111561147757600080fd5b611483858286016113cf565b925050602083013567ffffffffffffffff8111156114a057600080fd5b6114ac858286016113a5565b9150509250929050565b6000602082840312156114c857600080fd5b60006114d6848285016113f9565b91505092915050565b600080604083850312156114f257600080fd5b6000611500858286016113f9565b9250506020611511858286016113f9565b9150509250929050565b60006115278383611638565b905092915050565b600061153b83836118ea565b60208301905092915050565b61155081611d77565b82525050565b600061156182611ca2565b61156b8185611cdd565b93508360208202850161157d85611c82565b8060005b858110156115b9578484038952815161159a858261151b565b94506115a583611cc3565b925060208a01995050600181019050611581565b50829750879550505050505092915050565b60006115d682611cad565b6115e08185611cee565b93506115eb83611c92565b8060005b8381101561161c578151611603888261152f565b975061160e83611cd0565b9250506001810190506115ef565b5085935050505092915050565b61163281611d89565b82525050565b600061164382611cb8565b61164d8185611cff565b935061165d818560208601611dce565b61166681611f09565b840191505092915050565b600061167c82611cb8565b6116868185611d10565b9350611696818560208601611dce565b61169f81611f09565b840191505092915050565b60006116b7601683611d10565b91507f506f6c6c20616c72656164792066696e616c697a6564000000000000000000006000830152602082019050919050565b60006116f7600e83611d10565b91507f496e76616c6964206f7074696f6e0000000000000000000000000000000000006000830152602082019050919050565b6000611737600d83611d10565b91507f416c726561647920766f746564000000000000000000000000000000000000006000830152602082019050919050565b6000611777601983611d10565b91507f4f6e6c792063726561746f722063616e2066696e616c697a65000000000000006000830152602082019050919050565b60006117b7601383611d10565b91507f506f6c6c20646f6573206e6f74206578697374000000000000000000000000006000830152602082019050919050565b60006117f7601183611d10565b91507f5175657374696f6e2072657175697265640000000000000000000000000000006000830152602082019050919050565b6000611837601183611d10565b91507f416c72656164792066696e616c697a65640000000000000000000000000000006000830152602082019050919050565b6000611877601783611d10565b91507f4e656564206174206c656173742032206f7074696f6e730000000000000000006000830152602082019050919050565b60006118b7601783611d10565b91507f4f6e6c792063726561746f722063616e2064656c6574650000000000000000006000830152602082019050919050565b6118f381611db5565b82525050565b61190281611db5565b82525050565b600060a08201905061191d6000830188611547565b818103602083015261192f8187611671565b905081810360408301526119438186611556565b9050818103606083015261195781856115cb565b90506119666080830184611629565b9695505050505050565b60006020820190506119856000830184611629565b92915050565b600060408201905081810360008301526119a58185611671565b90506119b460208301846118f9565b9392505050565b600060208201905081810360008301526119d4816116aa565b9050919050565b600060208201905081810360008301526119f4816116ea565b9050919050565b60006020820190508181036000830152611a148161172a565b9050919050565b60006020820190508181036000830152611a348161176a565b9050919050565b60006020820190508181036000830152611a54816117aa565b9050919050565b60006020820190508181036000830152611a74816117ea565b9050919050565b60006020820190508181036000830152611a948161182a565b9050919050565b60006020820190508181036000830152611ab48161186a565b9050919050565b60006020820190508181036000830152611ad4816118aa565b9050919050565b6000602082019050611af060008301846118f9565b92915050565b6000604082019050611b0b60008301856118f9565b611b186020830184611547565b9392505050565b6000608082019050611b3460008301876118f9565b611b416020830186611547565b8181036040830152611b538185611671565b90508181036060830152611b678184611556565b905095945050505050565b6000608082019050611b8760008301876118f9565b611b946020830186611547565b8181036040830152611ba68185611671565b9050611bb56060830184611629565b95945050505050565b6000606082019050611bd360008301866118f9565b611be06020830185611547565b611bed60408301846118f9565b949350505050565b6000604051905081810181811067ffffffffffffffff82111715611c1c57611c1b611eda565b5b8060405250919050565b600067ffffffffffffffff821115611c4157611c40611eda565b5b602082029050602081019050919050565b600067ffffffffffffffff821115611c6d57611c6c611eda565b5b601f19601f8301169050602081019050919050565b6000819050602082019050919050565b6000819050602082019050919050565b600081519050919050565b600081519050919050565b600081519050919050565b6000602082019050919050565b6000602082019050919050565b600082825260208201905092915050565b600082825260208201905092915050565b600082825260208201905092915050565b600082825260208201905092915050565b6000611d2c82611db5565b9150611d3783611db5565b9250827fffffffffffffffffffffffffffffffffffffffffffffffffffffffffffffffff03821115611d6c57611d6b611e7c565b5b828201905092915050565b6000611d8282611d95565b9050919050565b60008115159050919050565b600073ffffffffffffffffffffffffffffffffffffffff82169050919050565b6000819050919050565b82818337600083830152505050565b60005b83811015611dec578082015181840152602081019050611dd1565b83811115611dfb576000848401525b50505050565b60006002820490506001821680611e1957607f821691505b60208210811415611e2d57611e2c611eab565b5b50919050565b6000611e3e82611db5565b91507fffffffffffffffffffffffffffffffffffffffffffffffffffffffffffffffff821415611e7157611e70611e7c565b5b600182019050919050565b7f4e487b7100000000000000000000000000000000000000000000000000000000600052601160045260246000fd5b7f4e487b7100000000000000000000000000000000000000000000000000000000600052602260045260246000fd5b7f4e487b7100000000000000000000000000000000000000000000000000000000600052604160045260246000fd5b6000601f19601f8301169050919050565b611f2381611d77565b8114611f2e57600080fd5b50565b611f3a81611db5565b8114611f4557600080fd5b5056fea264697066735822122014bf72dd80f9056481ae32ab576aa6d648eaf5145b3dd8e6cbc20e13b1bb8be064736f6c63430008000033",
  "immutableReferences": {},
  "source": "// SPDX-License-Identifier: MIT\r\npragma solidity ^0.8.0;\r\n\r\ncontract Voting {\r\n    uint public pollsCount = 0;\r\n\r\n    struct Option {\r\n        string option;\r\n        uint votes;\r\n    }\r\n\r\n    struct Poll {\r\n        uint id;\r\n        address creator;\r\n        string question;\r\n        bool finalized;\r\n    }\r\n\r\n    // Storage\r\n    mapping(uint => Poll) public pollIdToPoll;\r\n    mapping(uint => Option[]) public pollIdToOptions;\r\n    mapping(address => mapping(uint => bool)) public hasVotedOnPoll;\r\n\r\n    // Events\r\n    event PollCreated(\r\n        uint id,\r\n        address creator,\r\n        string question,\r\n        string[] options\r\n    );\r\n    event PollVoted(uint id, address voter, uint optionIndex);\r\n    event PollDeleted(uint id, address deletedBy);\r\n    event PollFinalized(uint id);\r\n\r\n    function pollCount() external view returns (uint) {\r\n        return pollsCount;\r\n    }\r\n\r\n    function createPoll(\r\n        string memory _question,\r\n        string[] memory _options\r\n    ) public {\r\n        require(bytes(_question).length > 0, \"Question required\");\r\n        require(_options.length > 1, \"Need at least 2 options\");\r\n\r\n        pollsCount++;\r\n        Poll memory _poll = Poll({\r\n            id: pollsCount,\r\n            creator: msg.sender,\r\n            question: _question,\r\n            finalized: false\r\n        });\r\n        pollIdToPoll[pollsCount] = _poll;\r\n\r\n        for (uint i = 0; i < _options.length; i++) {\r\n            pollIdToOptions[pollsCount].push(\r\n                Option({option: _options[i], votes: 0})\r\n            );\r\n        }\r\n\r\n        emit PollCreated(pollsCount, msg.sender, _question, _options);\r\n    }\r\n\r\n    function vote(uint _pollId, uint _optionIndex) public {\r\n        require(_pollId != 0 && _pollId <= pollsCount, \"Poll does not exist\");\r\n        Poll storage p = pollIdToPoll[_pollId];\r\n\r\n        require(!p.finalized, \"Poll already finalized\");\r\n        require(\r\n            _optionIndex < pollIdToOptions[_pollId].length,\r\n            \"Invalid option\"\r\n        );\r\n        require(!hasVotedOnPoll[msg.sender][_pollId], \"Already voted\");\r\n\r\n        pollIdToOptions[_pollId][_optionIndex].votes += 1;\r\n        hasVotedOnPoll[msg.sender][_pollId] = true;\r\n\r\n        emit PollVoted(_pollId, msg.sender, _optionIndex);\r\n    }\r\n\r\n    function finalizePoll(uint _pollId) external {\r\n        require(_pollId != 0 && _pollId <= pollsCount, \"Poll does not exist\");\r\n        Poll storage p = pollIdToPoll[_pollId];\r\n        require(p.creator == msg.sender, \"Only creator can finalize\");\r\n        require(!p.finalized, \"Already finalized\");\r\n\r\n        p.finalized = true;\r\n        emit PollFinalized(_pollId);\r\n    }\r\n\r\n    function getPoll(\r\n        uint _pollId\r\n    )\r\n        external\r\n        view\r\n        returns (\r\n            address creator,\r\n            string memory question,\r\n            string[] memory options,\r\n            uint[] memory votes,\r\n            bool finalized\r\n        )\r\n    {\r\n        require(_pollId != 0 && _pollId <= pollsCount, \"Poll does not exist\");\r\n\r\n        Poll storage poll = pollIdToPoll[_pollId];\r\n        uint optionCount = pollIdToOptions[_pollId].length;\r\n\r\n        string[] memory optionTexts = new string[](optionCount);\r\n        uint[] memory optionVotes = new uint[](optionCount);\r\n\r\n        for (uint i = 0; i < optionCount; i++) {\r\n            optionTexts[i] = pollIdToOptions[_pollId][i].option;\r\n            optionVotes[i] = pollIdToOptions[_pollId][i].votes;\r\n        }\r\n\r\n        return (poll.creator, poll.question, optionTexts, optionVotes, poll.finalized);\r\n    }\r\n\r\n    // function getPollMeta(\r\n    //     uint _pollId\r\n    // ) external view returns (address creator, bool finalized) {\r\n    //     require(_pollId != 0 && _pollId <= pollsCount, \"Poll does not exist\");\r\n    //     Poll storage poll = pollIdToPoll[_pollId];\r\n    //     return (poll.creator, poll.finalized);\r\n    // }\r\n\r\n    function hasVoted(address user, uint _pollId) external view returns (bool) {\r\n        return hasVotedOnPoll[user][_pollId];\r\n    }\r\n\r\n    function deletePoll(uint _pollId) external {\r\n        require(_pollId != 0 && _pollId <= pollsCount, \"Poll does not exist\");\r\n\r\n        Poll storage poll = pollIdToPoll[_pollId];\r\n        require(poll.creator == msg.sender, \"Only creator can delete\");\r\n\r\n        delete pollIdToOptions[_pollId];\r\n\r\n        delete pollIdToPoll[_pollId];\r\n\r\n        emit PollDeleted(_pollId, msg.sender);\r\n    }\r\n}\r\n",
  "sourcePath": "D:\\program\\smt7\\Test\\election\\vote\\contracts\\Voting.sol",
  "compiler": {
    "name": "solc",
    "version": "0.8.0+commit.c7dfd78e.Emscripten.clang"
  },
  "schemaVersion": "3.4.16",
  "updatedAt": "2025-08-25T08:44:09.066Z",
  "networkType": "ethereum",
  "devdoc": {
    "kind": "dev",
    "methods": {},
    "version": 1
  },
  "userdoc": {
    "kind": "user",
    "methods": {},
    "version": 1
  }
}