{
  "contractName": "Voting",
  "abi": [
    {
      "constant": true,
      "inputs": [],
      "name": "jumlahKandidat",
      "outputs": [
        {
          "name": "",
          "type": "uint256"
        }
      ],
      "payable": false,
      "stateMutability": "view",
      "type": "function"
    },
    {
      "constant": true,
      "inputs": [
        {
          "name": "",
          "type": "address"
        }
      ],
      "name": "paraPemilih",
      "outputs": [
        {
          "name": "",
          "type": "bool"
        }
      ],
      "payable": false,
      "stateMutability": "view",
      "type": "function"
    },
    {
      "constant": true,
      "inputs": [
        {
          "name": "",
          "type": "uint256"
        }
      ],
      "name": "paraKandidat",
      "outputs": [
        {
          "name": "id",
          "type": "uint256"
        },
        {
          "name": "nama",
          "type": "string"
        },
        {
          "name": "jumlahVote",
          "type": "uint256"
        }
      ],
      "payable": false,
      "stateMutability": "view",
      "type": "function"
    },
    {
      "inputs": [],
      "payable": false,
      "stateMutability": "nonpayable",
      "type": "constructor"
    },
    {
      "constant": false,
      "inputs": [
        {
          "name": "_kandidatId",
          "type": "uint256"
        }
      ],
      "name": "vote",
      "outputs": [],
      "payable": false,
      "stateMutability": "nonpayable",
      "type": "function"
    }
  ],
  "bytecode": "0x608060405234801561001057600080fd5b5061005e6040805190810160405280600a81526020017f4b616e64696461742031000000000000000000000000000000000000000000008152506100b0640100000000026401000000009004565b6100ab6040805190810160405280600a81526020017f4b616e64696461742032000000000000000000000000000000000000000000008152506100b0640100000000026401000000009004565b6101d2565b6002600081548092919060010191905055506060604051908101604052806002548152602001828152602001600081525060016000600254815260200190815260200160002060008201518160000155602082015181600101908051906020019061011c92919061012d565b506040820151816002015590505050565b828054600181600116156101000203166002900490600052602060002090601f016020900481019282601f1061016e57805160ff191683800117855561019c565b8280016001018555821561019c579182015b8281111561019b578251825591602001919060010190610180565b5b5090506101a991906101ad565b5090565b6101cf91905b808211156101cb5760008160009055506001016101b3565b5090565b90565b6104a9806101e16000396000f300608060405260043610610062576000357c0100000000000000000000000000000000000000000000000000000000900463ffffffff1680630121b93f14610067578063089ba511146100945780638076ad5a146100bf578063c607b4121461011a575b600080fd5b34801561007357600080fd5b50610092600480360381019080803590602001909291905050506101ce565b005b3480156100a057600080fd5b506100a9610395565b6040518082815260200191505060405180910390f35b3480156100cb57600080fd5b50610100600480360381019080803573ffffffffffffffffffffffffffffffffffffffff16906020019092919050505061039b565b604051808215151515815260200191505060405180910390f35b34801561012657600080fd5b50610145600480360381019080803590602001909291905050506103bb565b6040518084815260200180602001838152602001828103825284818151815260200191508051906020019080838360005b83811015610191578082015181840152602081019050610176565b50505050905090810190601f1680156101be5780820380516001836020036101000a031916815260200191505b5094505050505060405180910390f35b6000803373ffffffffffffffffffffffffffffffffffffffff1673ffffffffffffffffffffffffffffffffffffffff16815260200190815260200160002060009054906101000a900460ff1615151561028f576040517f08c379a000000000000000000000000000000000000000000000000000000000815260040180806020018281038252601c8152602001807f416e6461207375646168206d656d626572696b616e2073756172612e0000000081525060200191505060405180910390fd5b6000811180156102a157506002548111155b1515610315576040517f08c379a00000000000000000000000000000000000000000000000000000000081526004018080602001828103825260188152602001807f4944206b616e646964617420746964616b2076616c69642e000000000000000081525060200191505060405180910390fd5b60016000803373ffffffffffffffffffffffffffffffffffffffff1673ffffffffffffffffffffffffffffffffffffffff16815260200190815260200160002060006101000a81548160ff021916908315150217905550600160008281526020019081526020016000206002016000815480929190600101919050555050565b60025481565b60006020528060005260406000206000915054906101000a900460ff1681565b6001602052806000526040600020600091509050806000015490806001018054600181600116156101000203166002900480601f01602080910402602001604051908101604052809291908181526020018280546001816001161561010002031660029004801561046d5780601f106104425761010080835404028352916020019161046d565b820191906000526020600020905b81548152906001019060200180831161045057829003601f168201915b50505050509080600201549050835600a165627a7a723058209a828fecfbc0de0952299dd4f38fb67db646ad8bc519d40e831810bcd632dcb70029",
  "source": "// SPDX-License-Identifier: MIT\npragma solidity >=0.4.22 <0.9.0;\n\ncontract Voting {\n    struct Kandidat {\n        uint id;\n        string nama;\n        uint jumlahVote;\n    }\n    mapping(address => bool) public paraPemilih;\n    mapping(uint => Kandidat) public paraKandidat;\n    uint public jumlahKandidat;\n\n    //Constructor to initialize with two candidates\n    constructor() public {\n        tambahKandidat(\"Kandidat 1\");\n        tambahKandidat(\"Kandidat 2\");\n    }\n\n    //Function to add a candidate\n    function tambahKandidat(string memory _nama) private {\n        jumlahKandidat++;\n        paraKandidat[jumlahKandidat] = Kandidat({\n            id: jumlahKandidat,\n            nama: _nama,\n            jumlahVote: 0\n        });\n    } //Function for voters to cast their vote\n\n    function vote(uint _kandidatId) public {\n        require(!paraPemilih[msg.sender], \"Anda sudah memberikan suara.\");\n        require(\n            _kandidatId > 0 && _kandidatId <= jumlahKandidat,\n            \"ID kandidat tidak valid.\"\n        );\n        paraPemilih[msg.sender] = true;\n        paraKandidat[_kandidatId].jumlahVote++;\n    }\n}\n",
  "sourcePath": "D:\\program\\smt7\\Test\\election\\vote\\contracts\\Voting.sol",
  "compiler": {
    "name": "solc",
    "version": "0.4.22+commit.4cb486ee.Emscripten.clang"
  },
  "schemaVersion": "3.4.16",
  "updatedAt": "2025-05-07T11:09:07.121Z",
  "networkType": "ethereum",
  "devdoc": {
    "methods": {}
  },
  "userdoc": {
    "methods": {}
  }
}