{
  "contractName": "Voting",
  "abi": [
    {
      "anonymous": false,
      "inputs": [
        {
          "indexed": false,
          "internalType": "uint256",
          "name": "id",
          "type": "uint256"
        },
        {
          "indexed": false,
          "internalType": "address",
          "name": "creator",
          "type": "address"
        },
        {
          "indexed": false,
          "internalType": "string",
          "name": "question",
          "type": "string"
        },
        {
          "indexed": false,
          "internalType": "string[]",
          "name": "options",
          "type": "string[]"
        }
      ],
      "name": "PollCreated",
      "type": "event"
    },
    {
      "anonymous": false,
      "inputs": [
        {
          "indexed": false,
          "internalType": "uint256",
          "name": "id",
          "type": "uint256"
        }
      ],
      "name": "PollDeleted",
      "type": "event"
    },
    {
      "anonymous": false,
      "inputs": [
        {
          "indexed": false,
          "internalType": "uint256",
          "name": "id",
          "type": "uint256"
        }
      ],
      "name": "PollFinalized",
      "type": "event"
    },
    {
      "anonymous": false,
      "inputs": [
        {
          "indexed": false,
          "internalType": "uint256",
          "name": "id",
          "type": "uint256"
        },
        {
          "indexed": false,
          "internalType": "address",
          "name": "voter",
          "type": "address"
        },
        {
          "indexed": false,
          "internalType": "uint256",
          "name": "optionIndex",
          "type": "uint256"
        }
      ],
      "name": "PollVoted",
      "type": "event"
    },
    {
      "inputs": [
        {
          "internalType": "address",
          "name": "",
          "type": "address"
        },
        {
          "internalType": "uint256",
          "name": "",
          "type": "uint256"
        }
      ],
      "name": "hasVotedOnPoll",
      "outputs": [
        {
          "internalType": "bool",
          "name": "",
          "type": "bool"
        }
      ],
      "stateMutability": "view",
      "type": "function",
      "constant": true
    },
    {
      "inputs": [
        {
          "internalType": "uint256",
          "name": "",
          "type": "uint256"
        },
        {
          "internalType": "uint256",
          "name": "",
          "type": "uint256"
        }
      ],
      "name": "pollIdToOptions",
      "outputs": [
        {
          "internalType": "string",
          "name": "option",
          "type": "string"
        },
        {
          "internalType": "uint256",
          "name": "votes",
          "type": "uint256"
        }
      ],
      "stateMutability": "view",
      "type": "function",
      "constant": true
    },
    {
      "inputs": [
        {
          "internalType": "uint256",
          "name": "",
          "type": "uint256"
        }
      ],
      "name": "pollIdToPoll",
      "outputs": [
        {
          "internalType": "uint256",
          "name": "id",
          "type": "uint256"
        },
        {
          "internalType": "address",
          "name": "creator",
          "type": "address"
        },
        {
          "internalType": "string",
          "name": "question",
          "type": "string"
        },
        {
          "internalType": "bool",
          "name": "finalized",
          "type": "bool"
        }
      ],
      "stateMutability": "view",
      "type": "function",
      "constant": true
    },
    {
      "inputs": [],
      "name": "pollsCount",
      "outputs": [
        {
          "internalType": "uint256",
          "name": "",
          "type": "uint256"
        }
      ],
      "stateMutability": "view",
      "type": "function",
      "constant": true
    },
    {
      "inputs": [],
      "name": "pollCount",
      "outputs": [
        {
          "internalType": "uint256",
          "name": "",
          "type": "uint256"
        }
      ],
      "stateMutability": "view",
      "type": "function",
      "constant": true
    },
    {
      "inputs": [
        {
          "internalType": "string",
          "name": "_question",
          "type": "string"
        },
        {
          "internalType": "string[]",
          "name": "_options",
          "type": "string[]"
        }
      ],
      "name": "createPoll",
      "outputs": [],
      "stateMutability": "nonpayable",
      "type": "function"
    },
    {
      "inputs": [
        {
          "internalType": "uint256",
          "name": "_pollId",
          "type": "uint256"
        },
        {
          "internalType": "uint256",
          "name": "_optionIndex",
          "type": "uint256"
        }
      ],
      "name": "vote",
      "outputs": [],
      "stateMutability": "nonpayable",
      "type": "function"
    },
    {
      "inputs": [
        {
          "internalType": "uint256",
          "name": "_pollId",
          "type": "uint256"
        }
      ],
      "name": "finalizePoll",
      "outputs": [],
      "stateMutability": "nonpayable",
      "type": "function"
    },
    {
      "inputs": [
        {
          "internalType": "uint256",
          "name": "_pollId",
          "type": "uint256"
        }
      ],
      "name": "getPoll",
      "outputs": [
        {
          "internalType": "string",
          "name": "question",
          "type": "string"
        },
        {
          "internalType": "string[]",
          "name": "options",
          "type": "string[]"
        },
        {
          "internalType": "uint256[]",
          "name": "votes",
          "type": "uint256[]"
        },
        {
          "internalType": "bool",
          "name": "finalized",
          "type": "bool"
        }
      ],
      "stateMutability": "view",
      "type": "function",
      "constant": true
    },
    {
      "inputs": [
        {
          "internalType": "uint256",
          "name": "_pollId",
          "type": "uint256"
        }
      ],
      "name": "getPollMeta",
      "outputs": [
        {
          "internalType": "address",
          "name": "creator",
          "type": "address"
        },
        {
          "internalType": "bool",
          "name": "finalized",
          "type": "bool"
        }
      ],
      "stateMutability": "view",
      "type": "function",
      "constant": true
    },
    {
      "inputs": [
        {
          "internalType": "address",
          "name": "user",
          "type": "address"
        },
        {
          "internalType": "uint256",
          "name": "_pollId",
          "type": "uint256"
        }
      ],
      "name": "hasVoted",
      "outputs": [
        {
          "internalType": "bool",
          "name": "",
          "type": "bool"
        }
      ],
      "stateMutability": "view",
      "type": "function",
      "constant": true
    },
    {
      "inputs": [
        {
          "internalType": "uint256",
          "name": "_pollId",
          "type": "uint256"
        }
      ],
      "name": "deletePoll",
      "outputs": [],
      "stateMutability": "nonpayable",
      "type": "function"
    }
  ],
  "bytecode": "0x60806040526000805534801561001457600080fd5b506122bb806100246000396000f3fe608060405234801561001057600080fd5b50600436106100b45760003560e01c80637e3d71c3116100715780637e3d71c3146101a55780638caa1354146101c15780639207891d146101f25780639c4ebd82146102105780639eca06b814610241578063b384abef14610271576100b4565b8063179d760d146100b95780631a8cbcaa146100d75780631f35b51d1461010a5780632425795a14610126578063425458251461015957806356597e4f14610189575b600080fd5b6100c161028d565b6040516100ce9190611e17565b60405180910390f35b6100f160048036038101906100ec91906117d7565b610293565b6040516101019493929190611c6d565b60405180910390f35b610124600480360381019061011f91906117d7565b6106a9565b005b610140600480360381019061013b91906117d7565b6109be565b6040516101509493929190611e85565b60405180910390f35b610173600480360381019061016e919061172f565b610aa3565b6040516101809190611c52565b60405180910390f35b6101a3600480360381019061019e91906117d7565b610b0b565b005b6101bf60048036038101906101ba919061176b565b610cb0565b005b6101db60048036038101906101d691906117d7565b610f55565b6040516101e9929190611c29565b60405180910390f35b6101fa611002565b6040516102079190611e17565b60405180910390f35b61022a60048036038101906102259190611800565b61100b565b604051610238929190611cc7565b60405180910390f35b61025b6004803603810190610256919061172f565b6110d4565b6040516102689190611c52565b60405180910390f35b61028b60048036038101906102869190611800565b611103565b005b60005481565b606080606060008085141580156102ac57506000548511155b6102eb576040517f08c379a00000000000000000000000000000000000000000000000000000000081526004016102e290611d77565b60405180910390fd5b600060016000878152602001908152602001600020905060006002600088815260200190815260200160002080549050905060008167ffffffffffffffff81111561035f577f4e487b7100000000000000000000000000000000000000000000000000000000600052604160045260246000fd5b60405190808252806020026020018201604052801561039257816020015b606081526020019060019003908161037d5790505b50905060008267ffffffffffffffff8111156103d7577f4e487b7100000000000000000000000000000000000000000000000000000000600052604160045260246000fd5b6040519080825280602002602001820160405280156104055781602001602082028036833780820191505090505b50905060005b838110156105f157600260008b8152602001908152602001600020818154811061045e577f4e487b7100000000000000000000000000000000000000000000000000000000600052603260045260246000fd5b9060005260206000209060020201600001805461047a9061213e565b80601f01602080910402602001604051908101604052809291908181526020018280546104a69061213e565b80156104f35780601f106104c8576101008083540402835291602001916104f3565b820191906000526020600020905b8154815290600101906020018083116104d657829003601f168201915b5050505050838281518110610531577f4e487b7100000000000000000000000000000000000000000000000000000000600052603260045260246000fd5b6020026020010181905250600260008b81526020019081526020016000208181548110610587577f4e487b7100000000000000000000000000000000000000000000000000000000600052603260045260246000fd5b9060005260206000209060020201600101548282815181106105d2577f4e487b7100000000000000000000000000000000000000000000000000000000600052603260045260246000fd5b60200260200101818152505080806105e990612170565b91505061040b565b508360020182828660030160009054906101000a900460ff168380546106169061213e565b80601f01602080910402602001604051908101604052809291908181526020018280546106429061213e565b801561068f5780601f106106645761010080835404028352916020019161068f565b820191906000526020600020905b81548152906001019060200180831161067257829003601f168201915b505050505093509750975097509750505050509193509193565b600081141580156106bc57506000548111155b6106fb576040517f08c379a00000000000000000000000000000000000000000000000000000000081526004016106f290611d77565b60405180910390fd5b3373ffffffffffffffffffffffffffffffffffffffff166001600083815260200190815260200160002060010160009054906101000a900473ffffffffffffffffffffffffffffffffffffffff1673ffffffffffffffffffffffffffffffffffffffff161461079f576040517f08c379a000000000000000000000000000000000000000000000000000000000815260040161079690611df7565b60405180910390fd5b6000805490508082146108e4576001600082815260200190815260200160002060016000848152602001908152602001600020600082015481600001556001820160009054906101000a900473ffffffffffffffffffffffffffffffffffffffff168160010160006101000a81548173ffffffffffffffffffffffffffffffffffffffff021916908373ffffffffffffffffffffffffffffffffffffffff16021790555060028201816002019080546108579061213e565b6108629291906113d1565b506003820160009054906101000a900460ff168160030160006101000a81548160ff02191690831515021790555090505060026000828152602001908152602001600020600260008481526020019081526020016000209080546108c792919061145e565b508160016000848152602001908152602001600020600001819055505b600160008281526020019081526020016000206000808201600090556001820160006101000a81549073ffffffffffffffffffffffffffffffffffffffff021916905560028201600061093791906114e0565b6003820160006101000a81549060ff0219169055505060026000828152602001908152602001600020600061096c9190611520565b60008081548092919061097e90612114565b91905055507fe66ba7d1f84b318686d5d7e1d0a39a60d5faec16733d8c4ae85a0f5b6522eaa1826040516109b29190611e17565b60405180910390a15050565b60016020528060005260406000206000915090508060000154908060010160009054906101000a900473ffffffffffffffffffffffffffffffffffffffff1690806002018054610a0d9061213e565b80601f0160208091040260200160405190810160405280929190818152602001828054610a399061213e565b8015610a865780601f10610a5b57610100808354040283529160200191610a86565b820191906000526020600020905b815481529060010190602001808311610a6957829003601f168201915b5050505050908060030160009054906101000a900460ff16905084565b6000600360008473ffffffffffffffffffffffffffffffffffffffff1673ffffffffffffffffffffffffffffffffffffffff168152602001908152602001600020600083815260200190815260200160002060009054906101000a900460ff16905092915050565b60008114158015610b1e57506000548111155b610b5d576040517f08c379a0000000000000000000000000000000000000000000000000000000008152600401610b5490611d77565b60405180910390fd5b60006001600083815260200190815260200160002090503373ffffffffffffffffffffffffffffffffffffffff168160010160009054906101000a900473ffffffffffffffffffffffffffffffffffffffff1673ffffffffffffffffffffffffffffffffffffffff1614610c06576040517f08c379a0000000000000000000000000000000000000000000000000000000008152600401610bfd90611d57565b60405180910390fd5b8060030160009054906101000a900460ff1615610c58576040517f08c379a0000000000000000000000000000000000000000000000000000000008152600401610c4f90611db7565b60405180910390fd5b60018160030160006101000a81548160ff0219169083151502179055507f0df714c47b343374075164edc8bdbacce890f6311b37904869c00a0d8d55a13582604051610ca49190611e17565b60405180910390a15050565b6000825111610cf4576040517f08c379a0000000000000000000000000000000000000000000000000000000008152600401610ceb90611d97565b60405180910390fd5b6001815111610d38576040517f08c379a0000000000000000000000000000000000000000000000000000000008152600401610d2f90611dd7565b60405180910390fd5b600080815480929190610d4a90612170565b91905055506000604051806080016040528060005481526020013373ffffffffffffffffffffffffffffffffffffffff1681526020018481526020016000151581525090508060016000805481526020019081526020016000206000820151816000015560208201518160010160006101000a81548173ffffffffffffffffffffffffffffffffffffffff021916908373ffffffffffffffffffffffffffffffffffffffff1602179055506040820151816002019080519060200190610e11929190611544565b5060608201518160030160006101000a81548160ff02191690831515021790555090505060005b8251811015610f105760026000805481526020019081526020016000206040518060400160405280858481518110610e99577f4e487b7100000000000000000000000000000000000000000000000000000000600052603260045260246000fd5b60200260200101518152602001600081525090806001815401808255809150506001900390600052602060002090600202016000909190919091506000820151816000019080519060200190610ef0929190611544565b506020820151816001015550508080610f0890612170565b915050610e38565b507f31c351ffa8603902e6b01b5c4be019eec72feadcbf2b19267909535f36f46479600054338585604051610f489493929190611e32565b60405180910390a1505050565b60008060008314158015610f6b57506000548311155b610faa576040517f08c379a0000000000000000000000000000000000000000000000000000000008152600401610fa190611d77565b60405180910390fd5b60006001600085815260200190815260200160002090508060010160009054906101000a900473ffffffffffffffffffffffffffffffffffffffff168160030160009054906101000a900460ff169250925050915091565b60008054905090565b6002602052816000526040600020818154811061102757600080fd5b90600052602060002090600202016000915091505080600001805461104b9061213e565b80601f01602080910402602001604051908101604052809291908181526020018280546110779061213e565b80156110c45780601f10611099576101008083540402835291602001916110c4565b820191906000526020600020905b8154815290600101906020018083116110a757829003601f168201915b5050505050908060010154905082565b60036020528160005260406000206020528060005260406000206000915091509054906101000a900460ff1681565b6000821415801561111657506000548211155b611155576040517f08c379a000000000000000000000000000000000000000000000000000000000815260040161114c90611d77565b60405180910390fd5b60006001600084815260200190815260200160002090508060030160009054906101000a900460ff16156111be576040517f08c379a00000000000000000000000000000000000000000000000000000000081526004016111b590611cf7565b60405180910390fd5b60026000848152602001908152602001600020805490508210611216576040517f08c379a000000000000000000000000000000000000000000000000000000000815260040161120d90611d17565b60405180910390fd5b600360003373ffffffffffffffffffffffffffffffffffffffff1673ffffffffffffffffffffffffffffffffffffffff168152602001908152602001600020600084815260200190815260200160002060009054906101000a900460ff16156112b4576040517f08c379a00000000000000000000000000000000000000000000000000000000081526004016112ab90611d37565b60405180910390fd5b6001600260008581526020019081526020016000208381548110611301577f4e487b7100000000000000000000000000000000000000000000000000000000600052603260045260246000fd5b906000526020600020906002020160010160008282546113219190612034565b925050819055506001600360003373ffffffffffffffffffffffffffffffffffffffff1673ffffffffffffffffffffffffffffffffffffffff168152602001908152602001600020600085815260200190815260200160002060006101000a81548160ff0219169083151502179055507f41b9ea38e0dca627a5a8588a7edd2198d6d8e43ec5a6161fa126559a0eb570148333846040516113c493929190611ed1565b60405180910390a1505050565b8280546113dd9061213e565b90600052602060002090601f0160209004810192826113ff576000855561144d565b82601f10611410578054855561144d565b8280016001018555821561144d57600052602060002091601f016020900482015b8281111561144c578254825591600101919060010190611431565b5b50905061145a91906115ca565b5090565b8280548282559060005260206000209060020281019282156114cf5760005260206000209160020282015b828111156114ce57828260008201816000019080546114a79061213e565b6114b29291906113d1565b5060018201548160010155505091600201919060020190611489565b5b5090506114dc91906115e7565b5090565b5080546114ec9061213e565b6000825580601f106114fe575061151d565b601f01602090049060005260206000209081019061151c91906115ca565b5b50565b508054600082556002029060005260206000209081019061154191906115e7565b50565b8280546115509061213e565b90600052602060002090601f01602090048101928261157257600085556115b9565b82601f1061158b57805160ff19168380011785556115b9565b828001600101855582156115b9579182015b828111156115b857825182559160200191906001019061159d565b5b5090506115c691906115ca565b5090565b5b808211156115e35760008160009055506001016115cb565b5090565b5b80821115611612576000808201600061160191906114e0565b6001820160009055506002016115e8565b5090565b600061162961162484611f39565b611f08565b9050808382526020820190508260005b85811015611669578135850161164f88826116f0565b845260208401935060208301925050600181019050611639565b5050509392505050565b600061168661168184611f65565b611f08565b90508281526020810184848401111561169e57600080fd5b6116a98482856120d2565b509392505050565b6000813590506116c081612257565b92915050565b600082601f8301126116d757600080fd5b81356116e7848260208601611616565b91505092915050565b600082601f83011261170157600080fd5b8135611711848260208601611673565b91505092915050565b6000813590506117298161226e565b92915050565b6000806040838503121561174257600080fd5b6000611750858286016116b1565b92505060206117618582860161171a565b9150509250929050565b6000806040838503121561177e57600080fd5b600083013567ffffffffffffffff81111561179857600080fd5b6117a4858286016116f0565b925050602083013567ffffffffffffffff8111156117c157600080fd5b6117cd858286016116c6565b9150509250929050565b6000602082840312156117e957600080fd5b60006117f78482850161171a565b91505092915050565b6000806040838503121561181357600080fd5b60006118218582860161171a565b92505060206118328582860161171a565b9150509250929050565b60006118488383611959565b905092915050565b600061185c8383611c0b565b60208301905092915050565b6118718161208a565b82525050565b600061188282611fb5565b61188c8185611ff0565b93508360208202850161189e85611f95565b8060005b858110156118da57848403895281516118bb858261183c565b94506118c683611fd6565b925060208a019950506001810190506118a2565b50829750879550505050505092915050565b60006118f782611fc0565b6119018185612001565b935061190c83611fa5565b8060005b8381101561193d5781516119248882611850565b975061192f83611fe3565b925050600181019050611910565b5085935050505092915050565b6119538161209c565b82525050565b600061196482611fcb565b61196e8185612012565b935061197e8185602086016120e1565b61198781612246565b840191505092915050565b600061199d82611fcb565b6119a78185612023565b93506119b78185602086016120e1565b6119c081612246565b840191505092915050565b60006119d8601683612023565b91507f506f6c6c20616c72656164792066696e616c697a6564000000000000000000006000830152602082019050919050565b6000611a18600e83612023565b91507f496e76616c6964206f7074696f6e0000000000000000000000000000000000006000830152602082019050919050565b6000611a58600d83612023565b91507f416c726561647920766f746564000000000000000000000000000000000000006000830152602082019050919050565b6000611a98601983612023565b91507f4f6e6c792063726561746f722063616e2066696e616c697a65000000000000006000830152602082019050919050565b6000611ad8601383612023565b91507f506f6c6c20646f6573206e6f74206578697374000000000000000000000000006000830152602082019050919050565b6000611b18601183612023565b91507f5175657374696f6e2072657175697265640000000000000000000000000000006000830152602082019050919050565b6000611b58601183612023565b91507f416c72656164792066696e616c697a65640000000000000000000000000000006000830152602082019050919050565b6000611b98601783612023565b91507f4e656564206174206c656173742032206f7074696f6e730000000000000000006000830152602082019050919050565b6000611bd8601783612023565b91507f4f6e6c792063726561746f722063616e2064656c6574650000000000000000006000830152602082019050919050565b611c14816120c8565b82525050565b611c23816120c8565b82525050565b6000604082019050611c3e6000830185611868565b611c4b602083018461194a565b9392505050565b6000602082019050611c67600083018461194a565b92915050565b60006080820190508181036000830152611c878187611992565b90508181036020830152611c9b8186611877565b90508181036040830152611caf81856118ec565b9050611cbe606083018461194a565b95945050505050565b60006040820190508181036000830152611ce18185611992565b9050611cf06020830184611c1a565b9392505050565b60006020820190508181036000830152611d10816119cb565b9050919050565b60006020820190508181036000830152611d3081611a0b565b9050919050565b60006020820190508181036000830152611d5081611a4b565b9050919050565b60006020820190508181036000830152611d7081611a8b565b9050919050565b60006020820190508181036000830152611d9081611acb565b9050919050565b60006020820190508181036000830152611db081611b0b565b9050919050565b60006020820190508181036000830152611dd081611b4b565b9050919050565b60006020820190508181036000830152611df081611b8b565b9050919050565b60006020820190508181036000830152611e1081611bcb565b9050919050565b6000602082019050611e2c6000830184611c1a565b92915050565b6000608082019050611e476000830187611c1a565b611e546020830186611868565b8181036040830152611e668185611992565b90508181036060830152611e7a8184611877565b905095945050505050565b6000608082019050611e9a6000830187611c1a565b611ea76020830186611868565b8181036040830152611eb98185611992565b9050611ec8606083018461194a565b95945050505050565b6000606082019050611ee66000830186611c1a565b611ef36020830185611868565b611f006040830184611c1a565b949350505050565b6000604051905081810181811067ffffffffffffffff82111715611f2f57611f2e612217565b5b8060405250919050565b600067ffffffffffffffff821115611f5457611f53612217565b5b602082029050602081019050919050565b600067ffffffffffffffff821115611f8057611f7f612217565b5b601f19601f8301169050602081019050919050565b6000819050602082019050919050565b6000819050602082019050919050565b600081519050919050565b600081519050919050565b600081519050919050565b6000602082019050919050565b6000602082019050919050565b600082825260208201905092915050565b600082825260208201905092915050565b600082825260208201905092915050565b600082825260208201905092915050565b600061203f826120c8565b915061204a836120c8565b9250827fffffffffffffffffffffffffffffffffffffffffffffffffffffffffffffffff0382111561207f5761207e6121b9565b5b828201905092915050565b6000612095826120a8565b9050919050565b60008115159050919050565b600073ffffffffffffffffffffffffffffffffffffffff82169050919050565b6000819050919050565b82818337600083830152505050565b60005b838110156120ff5780820151818401526020810190506120e4565b8381111561210e576000848401525b50505050565b600061211f826120c8565b91506000821415612133576121326121b9565b5b600182039050919050565b6000600282049050600182168061215657607f821691505b6020821081141561216a576121696121e8565b5b50919050565b600061217b826120c8565b91507fffffffffffffffffffffffffffffffffffffffffffffffffffffffffffffffff8214156121ae576121ad6121b9565b5b600182019050919050565b7f4e487b7100000000000000000000000000000000000000000000000000000000600052601160045260246000fd5b7f4e487b7100000000000000000000000000000000000000000000000000000000600052602260045260246000fd5b7f4e487b7100000000000000000000000000000000000000000000000000000000600052604160045260246000fd5b6000601f19601f8301169050919050565b6122608161208a565b811461226b57600080fd5b50565b612277816120c8565b811461228257600080fd5b5056fea26469706673582212204b3f6c6fb94b2b38f8c84eb93db73d4a391c79497e7a7443087038e2a08bc4be64736f6c63430008000033",
  "immutableReferences": {},
  "source": "// SPDX-License-Identifier: MIT\r\npragma solidity ^0.8.0;\r\n\r\ncontract Voting {\r\n    uint public pollsCount = 0;\r\n\r\n    struct Option {\r\n        string option;\r\n        uint votes;\r\n    }\r\n\r\n    struct Poll {\r\n        uint id;\r\n        address creator;\r\n        string question;\r\n        bool finalized;\r\n    }\r\n\r\n    // Storage\r\n    mapping(uint => Poll) public pollIdToPoll;\r\n    mapping(uint => Option[]) public pollIdToOptions;\r\n    mapping(address => mapping(uint => bool)) public hasVotedOnPoll;\r\n\r\n    // Events\r\n    event PollCreated(\r\n        uint id,\r\n        address creator,\r\n        string question,\r\n        string[] options\r\n    );\r\n    event PollVoted(uint id, address voter, uint optionIndex);\r\n    event PollDeleted(uint id);\r\n    event PollFinalized(uint id);\r\n\r\n    function pollCount() external view returns (uint) {\r\n        return pollsCount;\r\n    }\r\n\r\n    function createPoll(\r\n        string memory _question,\r\n        string[] memory _options\r\n    ) public {\r\n        require(bytes(_question).length > 0, \"Question required\");\r\n        require(_options.length > 1, \"Need at least 2 options\");\r\n\r\n        pollsCount++;\r\n        Poll memory _poll = Poll({\r\n            id: pollsCount,\r\n            creator: msg.sender,\r\n            question: _question,\r\n            finalized: false\r\n        });\r\n        pollIdToPoll[pollsCount] = _poll;\r\n\r\n        for (uint i = 0; i < _options.length; i++) {\r\n            pollIdToOptions[pollsCount].push(\r\n                Option({option: _options[i], votes: 0})\r\n            );\r\n        }\r\n\r\n        emit PollCreated(pollsCount, msg.sender, _question, _options);\r\n    }\r\n\r\n    function vote(uint _pollId, uint _optionIndex) public {\r\n        require(_pollId != 0 && _pollId <= pollsCount, \"Poll does not exist\");\r\n        Poll storage p = pollIdToPoll[_pollId];\r\n\r\n        require(!p.finalized, \"Poll already finalized\");\r\n        require(\r\n            _optionIndex < pollIdToOptions[_pollId].length,\r\n            \"Invalid option\"\r\n        );\r\n        require(!hasVotedOnPoll[msg.sender][_pollId], \"Already voted\");\r\n\r\n        pollIdToOptions[_pollId][_optionIndex].votes += 1;\r\n        hasVotedOnPoll[msg.sender][_pollId] = true;\r\n\r\n        emit PollVoted(_pollId, msg.sender, _optionIndex);\r\n    }\r\n\r\n    function finalizePoll(uint _pollId) external {\r\n        require(_pollId != 0 && _pollId <= pollsCount, \"Poll does not exist\");\r\n        Poll storage p = pollIdToPoll[_pollId];\r\n        require(p.creator == msg.sender, \"Only creator can finalize\");\r\n        require(!p.finalized, \"Already finalized\");\r\n\r\n        p.finalized = true;\r\n        emit PollFinalized(_pollId);\r\n    }\r\n\r\n    function getPoll(\r\n        uint _pollId\r\n    )\r\n        external\r\n        view\r\n        returns (\r\n            string memory question,\r\n            string[] memory options,\r\n            uint[] memory votes,\r\n            bool finalized\r\n        )\r\n    {\r\n        require(_pollId != 0 && _pollId <= pollsCount, \"Poll does not exist\");\r\n\r\n        Poll storage poll = pollIdToPoll[_pollId];\r\n        uint optionCount = pollIdToOptions[_pollId].length;\r\n\r\n        string[] memory optionTexts = new string[](optionCount);\r\n        uint[] memory optionVotes = new uint[](optionCount);\r\n\r\n        for (uint i = 0; i < optionCount; i++) {\r\n            optionTexts[i] = pollIdToOptions[_pollId][i].option;\r\n            optionVotes[i] = pollIdToOptions[_pollId][i].votes;\r\n        }\r\n\r\n        return (poll.question, optionTexts, optionVotes, poll.finalized);\r\n    }\r\n\r\n    function getPollMeta(\r\n        uint _pollId\r\n    ) external view returns (address creator, bool finalized) {\r\n        require(_pollId != 0 && _pollId <= pollsCount, \"Poll does not exist\");\r\n        Poll storage poll = pollIdToPoll[_pollId];\r\n        return (poll.creator, poll.finalized);\r\n    }\r\n\r\n    function hasVoted(address user, uint _pollId) external view returns (bool) {\r\n        return hasVotedOnPoll[user][_pollId];\r\n    }\r\n\r\n    function deletePoll(uint _pollId) external {\r\n        require(_pollId != 0 && _pollId <= pollsCount, \"Poll does not exist\");\r\n        require(pollIdToPoll[_pollId].creator == msg.sender, \"Only creator can delete\");\r\n\r\n        uint lastId = pollsCount;\r\n\r\n        if (_pollId != lastId) {\r\n            // copy data poll terakhir ke posisi _pollId\r\n            pollIdToPoll[_pollId] = pollIdToPoll[lastId];\r\n            pollIdToOptions[_pollId] = pollIdToOptions[lastId];\r\n\r\n            // update id agar konsisten\r\n            pollIdToPoll[_pollId].id = _pollId;\r\n        }\r\n\r\n        // hapus data terakhir\r\n        delete pollIdToPoll[lastId];\r\n        delete pollIdToOptions[lastId];\r\n\r\n        pollsCount--;\r\n\r\n        emit PollDeleted(_pollId);\r\n    }\r\n}\r\n",
  "sourcePath": "D:\\program\\smt7\\Test\\election\\vote\\contracts\\Voting.sol",
  "compiler": {
    "name": "solc",
    "version": "0.8.0+commit.c7dfd78e.Emscripten.clang"
  },
  "schemaVersion": "3.4.16",
  "updatedAt": "2025-08-24T07:44:32.106Z",
  "networkType": "ethereum",
  "devdoc": {
    "kind": "dev",
    "methods": {},
    "version": 1
  },
  "userdoc": {
    "kind": "user",
    "methods": {},
    "version": 1
  }
}