{
  "contractName": "Voting",
  "abi": [
    {
      "anonymous": false,
      "inputs": [
        {
          "indexed": false,
          "internalType": "uint256",
          "name": "id",
          "type": "uint256"
        },
        {
          "indexed": false,
          "internalType": "address",
          "name": "creator",
          "type": "address"
        },
        {
          "indexed": false,
          "internalType": "string",
          "name": "question",
          "type": "string"
        },
        {
          "indexed": false,
          "internalType": "string[]",
          "name": "options",
          "type": "string[]"
        }
      ],
      "name": "PollCreated",
      "type": "event"
    },
    {
      "anonymous": false,
      "inputs": [
        {
          "indexed": false,
          "internalType": "uint256",
          "name": "id",
          "type": "uint256"
        },
        {
          "indexed": false,
          "internalType": "address",
          "name": "deletedBy",
          "type": "address"
        }
      ],
      "name": "PollDeleted",
      "type": "event"
    },
    {
      "anonymous": false,
      "inputs": [
        {
          "indexed": false,
          "internalType": "uint256",
          "name": "id",
          "type": "uint256"
        }
      ],
      "name": "PollFinalized",
      "type": "event"
    },
    {
      "anonymous": false,
      "inputs": [
        {
          "indexed": false,
          "internalType": "uint256",
          "name": "id",
          "type": "uint256"
        },
        {
          "indexed": false,
          "internalType": "address",
          "name": "voter",
          "type": "address"
        },
        {
          "indexed": false,
          "internalType": "uint256",
          "name": "optionIndex",
          "type": "uint256"
        }
      ],
      "name": "PollVoted",
      "type": "event"
    },
    {
      "inputs": [
        {
          "internalType": "address",
          "name": "",
          "type": "address"
        },
        {
          "internalType": "uint256",
          "name": "",
          "type": "uint256"
        }
      ],
      "name": "hasVotedOnPoll",
      "outputs": [
        {
          "internalType": "bool",
          "name": "",
          "type": "bool"
        }
      ],
      "stateMutability": "view",
      "type": "function",
      "constant": true
    },
    {
      "inputs": [
        {
          "internalType": "uint256",
          "name": "",
          "type": "uint256"
        },
        {
          "internalType": "uint256",
          "name": "",
          "type": "uint256"
        }
      ],
      "name": "pollIdToOptions",
      "outputs": [
        {
          "internalType": "string",
          "name": "option",
          "type": "string"
        },
        {
          "internalType": "uint256",
          "name": "votes",
          "type": "uint256"
        }
      ],
      "stateMutability": "view",
      "type": "function",
      "constant": true
    },
    {
      "inputs": [
        {
          "internalType": "uint256",
          "name": "",
          "type": "uint256"
        }
      ],
      "name": "pollIdToPoll",
      "outputs": [
        {
          "internalType": "uint256",
          "name": "id",
          "type": "uint256"
        },
        {
          "internalType": "address",
          "name": "creator",
          "type": "address"
        },
        {
          "internalType": "string",
          "name": "question",
          "type": "string"
        },
        {
          "internalType": "bool",
          "name": "finalized",
          "type": "bool"
        }
      ],
      "stateMutability": "view",
      "type": "function",
      "constant": true
    },
    {
      "inputs": [],
      "name": "pollsCount",
      "outputs": [
        {
          "internalType": "uint256",
          "name": "",
          "type": "uint256"
        }
      ],
      "stateMutability": "view",
      "type": "function",
      "constant": true
    },
    {
      "inputs": [],
      "name": "pollCount",
      "outputs": [
        {
          "internalType": "uint256",
          "name": "",
          "type": "uint256"
        }
      ],
      "stateMutability": "view",
      "type": "function",
      "constant": true
    },
    {
      "inputs": [
        {
          "internalType": "string",
          "name": "_question",
          "type": "string"
        },
        {
          "internalType": "string[]",
          "name": "_options",
          "type": "string[]"
        }
      ],
      "name": "createPoll",
      "outputs": [],
      "stateMutability": "nonpayable",
      "type": "function"
    },
    {
      "inputs": [
        {
          "internalType": "uint256",
          "name": "_pollId",
          "type": "uint256"
        },
        {
          "internalType": "uint256",
          "name": "_optionIndex",
          "type": "uint256"
        }
      ],
      "name": "vote",
      "outputs": [],
      "stateMutability": "nonpayable",
      "type": "function"
    },
    {
      "inputs": [
        {
          "internalType": "uint256",
          "name": "_pollId",
          "type": "uint256"
        }
      ],
      "name": "finalizePoll",
      "outputs": [],
      "stateMutability": "nonpayable",
      "type": "function"
    },
    {
      "inputs": [
        {
          "internalType": "uint256",
          "name": "_pollId",
          "type": "uint256"
        }
      ],
      "name": "getPoll",
      "outputs": [
        {
          "internalType": "string",
          "name": "question",
          "type": "string"
        },
        {
          "internalType": "string[]",
          "name": "options",
          "type": "string[]"
        },
        {
          "internalType": "uint256[]",
          "name": "votes",
          "type": "uint256[]"
        },
        {
          "internalType": "bool",
          "name": "finalized",
          "type": "bool"
        }
      ],
      "stateMutability": "view",
      "type": "function",
      "constant": true
    },
    {
      "inputs": [
        {
          "internalType": "uint256",
          "name": "_pollId",
          "type": "uint256"
        }
      ],
      "name": "getPollMeta",
      "outputs": [
        {
          "internalType": "address",
          "name": "creator",
          "type": "address"
        },
        {
          "internalType": "bool",
          "name": "finalized",
          "type": "bool"
        }
      ],
      "stateMutability": "view",
      "type": "function",
      "constant": true
    },
    {
      "inputs": [
        {
          "internalType": "address",
          "name": "user",
          "type": "address"
        },
        {
          "internalType": "uint256",
          "name": "_pollId",
          "type": "uint256"
        }
      ],
      "name": "hasVoted",
      "outputs": [
        {
          "internalType": "bool",
          "name": "",
          "type": "bool"
        }
      ],
      "stateMutability": "view",
      "type": "function",
      "constant": true
    },
    {
      "inputs": [
        {
          "internalType": "uint256",
          "name": "_pollId",
          "type": "uint256"
        }
      ],
      "name": "deletePoll",
      "outputs": [],
      "stateMutability": "nonpayable",
      "type": "function"
    }
  ],
  "bytecode": "0x60806040526000805534801561001457600080fd5b50612056806100246000396000f3fe608060405234801561001057600080fd5b50600436106100b45760003560e01c80637e3d71c3116100715780637e3d71c3146101a55780638caa1354146101c15780639207891d146101f25780639c4ebd82146102105780639eca06b814610241578063b384abef14610271576100b4565b8063179d760d146100b95780631a8cbcaa146100d75780631f35b51d1461010a5780632425795a14610126578063425458251461015957806356597e4f14610189575b600080fd5b6100c161028d565b6040516100ce9190611bb3565b60405180910390f35b6100f160048036038101906100ec9190611573565b610293565b6040516101019493929190611a09565b60405180910390f35b610124600480360381019061011f9190611573565b6106a9565b005b610140600480360381019061013b9190611573565b610869565b6040516101509493929190611c4a565b60405180910390f35b610173600480360381019061016e91906114cb565b61094e565b60405161018091906119ee565b60405180910390f35b6101a3600480360381019061019e9190611573565b6109b6565b005b6101bf60048036038101906101ba9190611507565b610b5b565b005b6101db60048036038101906101d69190611573565b610e00565b6040516101e99291906119c5565b60405180910390f35b6101fa610ead565b6040516102079190611bb3565b60405180910390f35b61022a6004803603810190610225919061159c565b610eb6565b604051610238929190611a63565b60405180910390f35b61025b600480360381019061025691906114cb565b610f7f565b60405161026891906119ee565b60405180910390f35b61028b6004803603810190610286919061159c565b610fae565b005b60005481565b606080606060008085141580156102ac57506000548511155b6102eb576040517f08c379a00000000000000000000000000000000000000000000000000000000081526004016102e290611b13565b60405180910390fd5b600060016000878152602001908152602001600020905060006002600088815260200190815260200160002080549050905060008167ffffffffffffffff81111561035f577f4e487b7100000000000000000000000000000000000000000000000000000000600052604160045260246000fd5b60405190808252806020026020018201604052801561039257816020015b606081526020019060019003908161037d5790505b50905060008267ffffffffffffffff8111156103d7577f4e487b7100000000000000000000000000000000000000000000000000000000600052604160045260246000fd5b6040519080825280602002602001820160405280156104055781602001602082028036833780820191505090505b50905060005b838110156105f157600260008b8152602001908152602001600020818154811061045e577f4e487b7100000000000000000000000000000000000000000000000000000000600052603260045260246000fd5b9060005260206000209060020201600001805461047a90611ed9565b80601f01602080910402602001604051908101604052809291908181526020018280546104a690611ed9565b80156104f35780601f106104c8576101008083540402835291602001916104f3565b820191906000526020600020905b8154815290600101906020018083116104d657829003601f168201915b5050505050838281518110610531577f4e487b7100000000000000000000000000000000000000000000000000000000600052603260045260246000fd5b6020026020010181905250600260008b81526020019081526020016000208181548110610587577f4e487b7100000000000000000000000000000000000000000000000000000000600052603260045260246000fd5b9060005260206000209060020201600101548282815181106105d2577f4e487b7100000000000000000000000000000000000000000000000000000000600052603260045260246000fd5b60200260200101818152505080806105e990611f0b565b91505061040b565b508360020182828660030160009054906101000a900460ff1683805461061690611ed9565b80601f016020809104026020016040519081016040528092919081815260200182805461064290611ed9565b801561068f5780601f106106645761010080835404028352916020019161068f565b820191906000526020600020905b81548152906001019060200180831161067257829003601f168201915b505050505093509750975097509750505050509193509193565b600081141580156106bc57506000548111155b6106fb576040517f08c379a00000000000000000000000000000000000000000000000000000000081526004016106f290611b13565b60405180910390fd5b60006001600083815260200190815260200160002090503373ffffffffffffffffffffffffffffffffffffffff168160010160009054906101000a900473ffffffffffffffffffffffffffffffffffffffff1673ffffffffffffffffffffffffffffffffffffffff16146107a4576040517f08c379a000000000000000000000000000000000000000000000000000000000815260040161079b90611b93565b60405180910390fd5b6002600083815260200190815260200160002060006107c3919061127c565b600160008381526020019081526020016000206000808201600090556001820160006101000a81549073ffffffffffffffffffffffffffffffffffffffff021916905560028201600061081691906112a0565b6003820160006101000a81549060ff021916905550507f05b0e65544d0436a1daaedf13ce02b014ed3a784e1cc64858063a94d228c989d823360405161085d929190611bce565b60405180910390a15050565b60016020528060005260406000206000915090508060000154908060010160009054906101000a900473ffffffffffffffffffffffffffffffffffffffff16908060020180546108b890611ed9565b80601f01602080910402602001604051908101604052809291908181526020018280546108e490611ed9565b80156109315780601f1061090657610100808354040283529160200191610931565b820191906000526020600020905b81548152906001019060200180831161091457829003601f168201915b5050505050908060030160009054906101000a900460ff16905084565b6000600360008473ffffffffffffffffffffffffffffffffffffffff1673ffffffffffffffffffffffffffffffffffffffff168152602001908152602001600020600083815260200190815260200160002060009054906101000a900460ff16905092915050565b600081141580156109c957506000548111155b610a08576040517f08c379a00000000000000000000000000000000000000000000000000000000081526004016109ff90611b13565b60405180910390fd5b60006001600083815260200190815260200160002090503373ffffffffffffffffffffffffffffffffffffffff168160010160009054906101000a900473ffffffffffffffffffffffffffffffffffffffff1673ffffffffffffffffffffffffffffffffffffffff1614610ab1576040517f08c379a0000000000000000000000000000000000000000000000000000000008152600401610aa890611af3565b60405180910390fd5b8060030160009054906101000a900460ff1615610b03576040517f08c379a0000000000000000000000000000000000000000000000000000000008152600401610afa90611b53565b60405180910390fd5b60018160030160006101000a81548160ff0219169083151502179055507f0df714c47b343374075164edc8bdbacce890f6311b37904869c00a0d8d55a13582604051610b4f9190611bb3565b60405180910390a15050565b6000825111610b9f576040517f08c379a0000000000000000000000000000000000000000000000000000000008152600401610b9690611b33565b60405180910390fd5b6001815111610be3576040517f08c379a0000000000000000000000000000000000000000000000000000000008152600401610bda90611b73565b60405180910390fd5b600080815480929190610bf590611f0b565b91905055506000604051806080016040528060005481526020013373ffffffffffffffffffffffffffffffffffffffff1681526020018481526020016000151581525090508060016000805481526020019081526020016000206000820151816000015560208201518160010160006101000a81548173ffffffffffffffffffffffffffffffffffffffff021916908373ffffffffffffffffffffffffffffffffffffffff1602179055506040820151816002019080519060200190610cbc9291906112e0565b5060608201518160030160006101000a81548160ff02191690831515021790555090505060005b8251811015610dbb5760026000805481526020019081526020016000206040518060400160405280858481518110610d44577f4e487b7100000000000000000000000000000000000000000000000000000000600052603260045260246000fd5b60200260200101518152602001600081525090806001815401808255809150506001900390600052602060002090600202016000909190919091506000820151816000019080519060200190610d9b9291906112e0565b506020820151816001015550508080610db390611f0b565b915050610ce3565b507f31c351ffa8603902e6b01b5c4be019eec72feadcbf2b19267909535f36f46479600054338585604051610df39493929190611bf7565b60405180910390a1505050565b60008060008314158015610e1657506000548311155b610e55576040517f08c379a0000000000000000000000000000000000000000000000000000000008152600401610e4c90611b13565b60405180910390fd5b60006001600085815260200190815260200160002090508060010160009054906101000a900473ffffffffffffffffffffffffffffffffffffffff168160030160009054906101000a900460ff169250925050915091565b60008054905090565b60026020528160005260406000208181548110610ed257600080fd5b906000526020600020906002020160009150915050806000018054610ef690611ed9565b80601f0160208091040260200160405190810160405280929190818152602001828054610f2290611ed9565b8015610f6f5780601f10610f4457610100808354040283529160200191610f6f565b820191906000526020600020905b815481529060010190602001808311610f5257829003601f168201915b5050505050908060010154905082565b60036020528160005260406000206020528060005260406000206000915091509054906101000a900460ff1681565b60008214158015610fc157506000548211155b611000576040517f08c379a0000000000000000000000000000000000000000000000000000000008152600401610ff790611b13565b60405180910390fd5b60006001600084815260200190815260200160002090508060030160009054906101000a900460ff1615611069576040517f08c379a000000000000000000000000000000000000000000000000000000000815260040161106090611a93565b60405180910390fd5b600260008481526020019081526020016000208054905082106110c1576040517f08c379a00000000000000000000000000000000000000000000000000000000081526004016110b890611ab3565b60405180910390fd5b600360003373ffffffffffffffffffffffffffffffffffffffff1673ffffffffffffffffffffffffffffffffffffffff168152602001908152602001600020600084815260200190815260200160002060009054906101000a900460ff161561115f576040517f08c379a000000000000000000000000000000000000000000000000000000000815260040161115690611ad3565b60405180910390fd5b60016002600085815260200190815260200160002083815481106111ac577f4e487b7100000000000000000000000000000000000000000000000000000000600052603260045260246000fd5b906000526020600020906002020160010160008282546111cc9190611df9565b925050819055506001600360003373ffffffffffffffffffffffffffffffffffffffff1673ffffffffffffffffffffffffffffffffffffffff168152602001908152602001600020600085815260200190815260200160002060006101000a81548160ff0219169083151502179055507f41b9ea38e0dca627a5a8588a7edd2198d6d8e43ec5a6161fa126559a0eb5701483338460405161126f93929190611c96565b60405180910390a1505050565b508054600082556002029060005260206000209081019061129d9190611366565b50565b5080546112ac90611ed9565b6000825580601f106112be57506112dd565b601f0160209004906000526020600020908101906112dc9190611395565b5b50565b8280546112ec90611ed9565b90600052602060002090601f01602090048101928261130e5760008555611355565b82601f1061132757805160ff1916838001178555611355565b82800160010185558215611355579182015b82811115611354578251825591602001919060010190611339565b5b5090506113629190611395565b5090565b5b80821115611391576000808201600061138091906112a0565b600182016000905550600201611367565b5090565b5b808211156113ae576000816000905550600101611396565b5090565b60006113c56113c084611cfe565b611ccd565b9050808382526020820190508260005b8581101561140557813585016113eb888261148c565b8452602084019350602083019250506001810190506113d5565b5050509392505050565b600061142261141d84611d2a565b611ccd565b90508281526020810184848401111561143a57600080fd5b611445848285611e97565b509392505050565b60008135905061145c81611ff2565b92915050565b600082601f83011261147357600080fd5b81356114838482602086016113b2565b91505092915050565b600082601f83011261149d57600080fd5b81356114ad84826020860161140f565b91505092915050565b6000813590506114c581612009565b92915050565b600080604083850312156114de57600080fd5b60006114ec8582860161144d565b92505060206114fd858286016114b6565b9150509250929050565b6000806040838503121561151a57600080fd5b600083013567ffffffffffffffff81111561153457600080fd5b6115408582860161148c565b925050602083013567ffffffffffffffff81111561155d57600080fd5b61156985828601611462565b9150509250929050565b60006020828403121561158557600080fd5b6000611593848285016114b6565b91505092915050565b600080604083850312156115af57600080fd5b60006115bd858286016114b6565b92505060206115ce858286016114b6565b9150509250929050565b60006115e483836116f5565b905092915050565b60006115f883836119a7565b60208301905092915050565b61160d81611e4f565b82525050565b600061161e82611d7a565b6116288185611db5565b93508360208202850161163a85611d5a565b8060005b85811015611676578484038952815161165785826115d8565b945061166283611d9b565b925060208a0199505060018101905061163e565b50829750879550505050505092915050565b600061169382611d85565b61169d8185611dc6565b93506116a883611d6a565b8060005b838110156116d95781516116c088826115ec565b97506116cb83611da8565b9250506001810190506116ac565b5085935050505092915050565b6116ef81611e61565b82525050565b600061170082611d90565b61170a8185611dd7565b935061171a818560208601611ea6565b61172381611fe1565b840191505092915050565b600061173982611d90565b6117438185611de8565b9350611753818560208601611ea6565b61175c81611fe1565b840191505092915050565b6000611774601683611de8565b91507f506f6c6c20616c72656164792066696e616c697a6564000000000000000000006000830152602082019050919050565b60006117b4600e83611de8565b91507f496e76616c6964206f7074696f6e0000000000000000000000000000000000006000830152602082019050919050565b60006117f4600d83611de8565b91507f416c726561647920766f746564000000000000000000000000000000000000006000830152602082019050919050565b6000611834601983611de8565b91507f4f6e6c792063726561746f722063616e2066696e616c697a65000000000000006000830152602082019050919050565b6000611874601383611de8565b91507f506f6c6c20646f6573206e6f74206578697374000000000000000000000000006000830152602082019050919050565b60006118b4601183611de8565b91507f5175657374696f6e2072657175697265640000000000000000000000000000006000830152602082019050919050565b60006118f4601183611de8565b91507f416c72656164792066696e616c697a65640000000000000000000000000000006000830152602082019050919050565b6000611934601783611de8565b91507f4e656564206174206c656173742032206f7074696f6e730000000000000000006000830152602082019050919050565b6000611974601783611de8565b91507f4f6e6c792063726561746f722063616e2064656c6574650000000000000000006000830152602082019050919050565b6119b081611e8d565b82525050565b6119bf81611e8d565b82525050565b60006040820190506119da6000830185611604565b6119e760208301846116e6565b9392505050565b6000602082019050611a0360008301846116e6565b92915050565b60006080820190508181036000830152611a23818761172e565b90508181036020830152611a378186611613565b90508181036040830152611a4b8185611688565b9050611a5a60608301846116e6565b95945050505050565b60006040820190508181036000830152611a7d818561172e565b9050611a8c60208301846119b6565b9392505050565b60006020820190508181036000830152611aac81611767565b9050919050565b60006020820190508181036000830152611acc816117a7565b9050919050565b60006020820190508181036000830152611aec816117e7565b9050919050565b60006020820190508181036000830152611b0c81611827565b9050919050565b60006020820190508181036000830152611b2c81611867565b9050919050565b60006020820190508181036000830152611b4c816118a7565b9050919050565b60006020820190508181036000830152611b6c816118e7565b9050919050565b60006020820190508181036000830152611b8c81611927565b9050919050565b60006020820190508181036000830152611bac81611967565b9050919050565b6000602082019050611bc860008301846119b6565b92915050565b6000604082019050611be360008301856119b6565b611bf06020830184611604565b9392505050565b6000608082019050611c0c60008301876119b6565b611c196020830186611604565b8181036040830152611c2b818561172e565b90508181036060830152611c3f8184611613565b905095945050505050565b6000608082019050611c5f60008301876119b6565b611c6c6020830186611604565b8181036040830152611c7e818561172e565b9050611c8d60608301846116e6565b95945050505050565b6000606082019050611cab60008301866119b6565b611cb86020830185611604565b611cc560408301846119b6565b949350505050565b6000604051905081810181811067ffffffffffffffff82111715611cf457611cf3611fb2565b5b8060405250919050565b600067ffffffffffffffff821115611d1957611d18611fb2565b5b602082029050602081019050919050565b600067ffffffffffffffff821115611d4557611d44611fb2565b5b601f19601f8301169050602081019050919050565b6000819050602082019050919050565b6000819050602082019050919050565b600081519050919050565b600081519050919050565b600081519050919050565b6000602082019050919050565b6000602082019050919050565b600082825260208201905092915050565b600082825260208201905092915050565b600082825260208201905092915050565b600082825260208201905092915050565b6000611e0482611e8d565b9150611e0f83611e8d565b9250827fffffffffffffffffffffffffffffffffffffffffffffffffffffffffffffffff03821115611e4457611e43611f54565b5b828201905092915050565b6000611e5a82611e6d565b9050919050565b60008115159050919050565b600073ffffffffffffffffffffffffffffffffffffffff82169050919050565b6000819050919050565b82818337600083830152505050565b60005b83811015611ec4578082015181840152602081019050611ea9565b83811115611ed3576000848401525b50505050565b60006002820490506001821680611ef157607f821691505b60208210811415611f0557611f04611f83565b5b50919050565b6000611f1682611e8d565b91507fffffffffffffffffffffffffffffffffffffffffffffffffffffffffffffffff821415611f4957611f48611f54565b5b600182019050919050565b7f4e487b7100000000000000000000000000000000000000000000000000000000600052601160045260246000fd5b7f4e487b7100000000000000000000000000000000000000000000000000000000600052602260045260246000fd5b7f4e487b7100000000000000000000000000000000000000000000000000000000600052604160045260246000fd5b6000601f19601f8301169050919050565b611ffb81611e4f565b811461200657600080fd5b50565b61201281611e8d565b811461201d57600080fd5b5056fea2646970667358221220b92c4dafa39d871550ca0841888e0ce3bca41438343b1a39a6b0c22844d0991a64736f6c63430008000033",
  "immutableReferences": {},
  "source": "// SPDX-License-Identifier: MIT\r\npragma solidity ^0.8.0;\r\n\r\ncontract Voting {\r\n    uint public pollsCount = 0;\r\n\r\n    struct Option {\r\n        string option;\r\n        uint votes;\r\n    }\r\n\r\n    struct Poll {\r\n        uint id;\r\n        address creator;\r\n        string question;\r\n        bool finalized;\r\n    }\r\n\r\n    // Storage\r\n    mapping(uint => Poll) public pollIdToPoll;\r\n    mapping(uint => Option[]) public pollIdToOptions;\r\n    mapping(address => mapping(uint => bool)) public hasVotedOnPoll;\r\n\r\n    // Events\r\n    event PollCreated(\r\n        uint id,\r\n        address creator,\r\n        string question,\r\n        string[] options\r\n    );\r\n    event PollVoted(uint id, address voter, uint optionIndex);\r\n    event PollDeleted(uint id, address deletedBy);\r\n    event PollFinalized(uint id);\r\n\r\n    function pollCount() external view returns (uint) {\r\n        return pollsCount;\r\n    }\r\n\r\n    function createPoll(\r\n        string memory _question,\r\n        string[] memory _options\r\n    ) public {\r\n        require(bytes(_question).length > 0, \"Question required\");\r\n        require(_options.length > 1, \"Need at least 2 options\");\r\n\r\n        pollsCount++;\r\n        Poll memory _poll = Poll({\r\n            id: pollsCount,\r\n            creator: msg.sender,\r\n            question: _question,\r\n            finalized: false\r\n        });\r\n        pollIdToPoll[pollsCount] = _poll;\r\n\r\n        for (uint i = 0; i < _options.length; i++) {\r\n            pollIdToOptions[pollsCount].push(\r\n                Option({option: _options[i], votes: 0})\r\n            );\r\n        }\r\n\r\n        emit PollCreated(pollsCount, msg.sender, _question, _options);\r\n    }\r\n\r\n    function vote(uint _pollId, uint _optionIndex) public {\r\n        require(_pollId != 0 && _pollId <= pollsCount, \"Poll does not exist\");\r\n        Poll storage p = pollIdToPoll[_pollId];\r\n\r\n        require(!p.finalized, \"Poll already finalized\");\r\n        require(\r\n            _optionIndex < pollIdToOptions[_pollId].length,\r\n            \"Invalid option\"\r\n        );\r\n        require(!hasVotedOnPoll[msg.sender][_pollId], \"Already voted\");\r\n\r\n        pollIdToOptions[_pollId][_optionIndex].votes += 1;\r\n        hasVotedOnPoll[msg.sender][_pollId] = true;\r\n\r\n        emit PollVoted(_pollId, msg.sender, _optionIndex);\r\n    }\r\n\r\n    function finalizePoll(uint _pollId) external {\r\n        require(_pollId != 0 && _pollId <= pollsCount, \"Poll does not exist\");\r\n        Poll storage p = pollIdToPoll[_pollId];\r\n        require(p.creator == msg.sender, \"Only creator can finalize\");\r\n        require(!p.finalized, \"Already finalized\");\r\n\r\n        p.finalized = true;\r\n        emit PollFinalized(_pollId);\r\n    }\r\n\r\n    function getPoll(\r\n        uint _pollId\r\n    )\r\n        external\r\n        view\r\n        returns (\r\n            string memory question,\r\n            string[] memory options,\r\n            uint[] memory votes,\r\n            bool finalized\r\n        )\r\n    {\r\n        require(_pollId != 0 && _pollId <= pollsCount, \"Poll does not exist\");\r\n\r\n        Poll storage poll = pollIdToPoll[_pollId];\r\n        uint optionCount = pollIdToOptions[_pollId].length;\r\n\r\n        string[] memory optionTexts = new string[](optionCount);\r\n        uint[] memory optionVotes = new uint[](optionCount);\r\n\r\n        for (uint i = 0; i < optionCount; i++) {\r\n            optionTexts[i] = pollIdToOptions[_pollId][i].option;\r\n            optionVotes[i] = pollIdToOptions[_pollId][i].votes;\r\n        }\r\n\r\n        return (poll.question, optionTexts, optionVotes, poll.finalized);\r\n    }\r\n\r\n    function getPollMeta(\r\n        uint _pollId\r\n    ) external view returns (address creator, bool finalized) {\r\n        require(_pollId != 0 && _pollId <= pollsCount, \"Poll does not exist\");\r\n        Poll storage poll = pollIdToPoll[_pollId];\r\n        return (poll.creator, poll.finalized);\r\n    }\r\n\r\n    function hasVoted(address user, uint _pollId) external view returns (bool) {\r\n        return hasVotedOnPoll[user][_pollId];\r\n    }\r\n\r\n    function deletePoll(uint _pollId) external {\r\n        require(_pollId != 0 && _pollId <= pollsCount, \"Poll does not exist\");\r\n\r\n        Poll storage poll = pollIdToPoll[_pollId];\r\n        require(poll.creator == msg.sender, \"Only creator can delete\");\r\n\r\n        delete pollIdToOptions[_pollId];\r\n\r\n        delete pollIdToPoll[_pollId];\r\n\r\n        emit PollDeleted(_pollId, msg.sender);\r\n    }\r\n}\r\n",
  "sourcePath": "D:\\program\\smt7\\Test\\election\\vote\\contracts\\Voting.sol",
  "compiler": {
    "name": "solc",
    "version": "0.8.0+commit.c7dfd78e.Emscripten.clang"
  },
  "schemaVersion": "3.4.16",
  "updatedAt": "2025-08-24T08:25:49.883Z",
  "networkType": "ethereum",
  "devdoc": {
    "kind": "dev",
    "methods": {},
    "version": 1
  },
  "userdoc": {
    "kind": "user",
    "methods": {},
    "version": 1
  }
}