{
  "contractName": "Voting",
  "abi": [
    {
      "constant": true,
      "inputs": [
        {
          "name": "",
          "type": "uint256"
        }
      ],
      "name": "candidates",
      "outputs": [
        {
          "name": "id",
          "type": "uint256"
        },
        {
          "name": "name",
          "type": "string"
        },
        {
          "name": "voteCount",
          "type": "uint256"
        },
        {
          "name": "exists",
          "type": "bool"
        }
      ],
      "payable": false,
      "stateMutability": "view",
      "type": "function"
    },
    {
      "constant": true,
      "inputs": [
        {
          "name": "",
          "type": "uint256"
        }
      ],
      "name": "voterList",
      "outputs": [
        {
          "name": "",
          "type": "address"
        }
      ],
      "payable": false,
      "stateMutability": "view",
      "type": "function"
    },
    {
      "constant": true,
      "inputs": [],
      "name": "owner",
      "outputs": [
        {
          "name": "",
          "type": "address"
        }
      ],
      "payable": false,
      "stateMutability": "view",
      "type": "function"
    },
    {
      "constant": true,
      "inputs": [
        {
          "name": "",
          "type": "address"
        }
      ],
      "name": "voters",
      "outputs": [
        {
          "name": "",
          "type": "bool"
        }
      ],
      "payable": false,
      "stateMutability": "view",
      "type": "function"
    },
    {
      "constant": true,
      "inputs": [],
      "name": "candidateCount",
      "outputs": [
        {
          "name": "",
          "type": "uint256"
        }
      ],
      "payable": false,
      "stateMutability": "view",
      "type": "function"
    },
    {
      "inputs": [],
      "payable": false,
      "stateMutability": "nonpayable",
      "type": "constructor"
    },
    {
      "constant": false,
      "inputs": [
        {
          "name": "_name",
          "type": "string"
        }
      ],
      "name": "createCandidate",
      "outputs": [],
      "payable": false,
      "stateMutability": "nonpayable",
      "type": "function"
    },
    {
      "constant": false,
      "inputs": [
        {
          "name": "_candidateId",
          "type": "uint256"
        }
      ],
      "name": "deleteCandidate",
      "outputs": [],
      "payable": false,
      "stateMutability": "nonpayable",
      "type": "function"
    },
    {
      "constant": false,
      "inputs": [
        {
          "name": "_candidateId",
          "type": "uint256"
        }
      ],
      "name": "vote",
      "outputs": [],
      "payable": false,
      "stateMutability": "nonpayable",
      "type": "function"
    }
  ],
  "bytecode": "0x60806040523480156200001157600080fd5b5033600460006101000a81548173ffffffffffffffffffffffffffffffffffffffff021916908373ffffffffffffffffffffffffffffffffffffffff160217905550620000a26040805190810160405280600b81526020017f43616e646964617465203100000000000000000000000000000000000000000081525062000146640100000000026401000000009004565b620000f16040805190810160405280600b81526020017f43616e646964617465203200000000000000000000000000000000000000000081525062000146640100000000026401000000009004565b620001406040805190810160405280600b81526020017f43616e646964617465203300000000000000000000000000000000000000000081525062000146640100000000026401000000009004565b62000423565b60036000815480929190600101919050555060806040519081016040528060035481526020018281526020016000815260200160011515815250600260006003548152602001908152602001600020600082015181600001556020820151816001019080519060200190620001bd92919062000351565b506040820151816002015560608201518160030160006101000a81548160ff0219169083151502179055509050506200020462000220640100000000026401000000009004565b6200021d620002e6640100000000026401000000009004565b50565b60008090505b600180549050811015620002d35760008060006001848154811015156200024957fe5b9060005260206000200160009054906101000a900473ffffffffffffffffffffffffffffffffffffffff1673ffffffffffffffffffffffffffffffffffffffff1673ffffffffffffffffffffffffffffffffffffffff16815260200190815260200160002060006101000a81548160ff021916908315150217905550808060010191505062000226565b60016000620002e39190620003d8565b50565b6000600190505b600354811115156200034e576002600082815260200190815260200160002060030160009054906101000a900460ff16156200034057600060026000838152602001908152602001600020600201819055505b8080600101915050620002ed565b50565b828054600181600116156101000203166002900490600052602060002090601f016020900481019282601f106200039457805160ff1916838001178555620003c5565b82800160010185558215620003c5579182015b82811115620003c4578251825591602001919060010190620003a7565b5b509050620003d49190620003fb565b5090565b5080546000825590600052602060002090810190620003f89190620003fb565b50565b6200042091905b808211156200041c57600081600090555060010162000402565b5090565b90565b610e3380620004336000396000f30060806040526004361061008e576000357c0100000000000000000000000000000000000000000000000000000000900463ffffffff1680630121b93f146100935780631e620cd4146100c05780633477ee2e146100ed57806350e2e8af146101ac5780635fba7a56146102195780638da5cb5b14610282578063a3ec138d146102d9578063a9a981a314610334575b600080fd5b34801561009f57600080fd5b506100be6004803603810190808035906020019092919050505061035f565b005b3480156100cc57600080fd5b506100eb6004803603810190808035906020019092919050505061059e565b005b3480156100f957600080fd5b5061011860048036038101908080359060200190929190505050610863565b604051808581526020018060200184815260200183151515158152602001828103825285818151815260200191508051906020019080838360005b8381101561016e578082015181840152602081019050610153565b50505050905090810190601f16801561019b5780820380516001836020036101000a031916815260200191505b509550505050505060405180910390f35b3480156101b857600080fd5b506101d760048036038101908080359060200190929190505050610938565b604051808273ffffffffffffffffffffffffffffffffffffffff1673ffffffffffffffffffffffffffffffffffffffff16815260200191505060405180910390f35b34801561022557600080fd5b50610280600480360381019080803590602001908201803590602001908080601f0160208091040260200160405190810160405280939291908181526020018383808284378201915050505050509192919290505050610976565b005b34801561028e57600080fd5b50610297610a47565b604051808273ffffffffffffffffffffffffffffffffffffffff1673ffffffffffffffffffffffffffffffffffffffff16815260200191505060405180910390f35b3480156102e557600080fd5b5061031a600480360381019080803573ffffffffffffffffffffffffffffffffffffffff169060200190929190505050610a6d565b604051808215151515815260200191505060405180910390f35b34801561034057600080fd5b50610349610a8d565b6040518082815260200191505060405180910390f35b6000803373ffffffffffffffffffffffffffffffffffffffff1673ffffffffffffffffffffffffffffffffffffffff16815260200190815260200160002060009054906101000a900460ff16151515610420576040517f08c379a00000000000000000000000000000000000000000000000000000000081526004018080602001828103825260178152602001807f596f75206861766520616c726561647920766f7465642e00000000000000000081525060200191505060405180910390fd5b6002600082815260200190815260200160002060030160009054906101000a900460ff1615156104b8576040517f08c379a00000000000000000000000000000000000000000000000000000000081526004018080602001828103825260188152602001807f43616e64696461746520646f6573206e6f74206578697374000000000000000081525060200191505060405180910390fd5b60016000803373ffffffffffffffffffffffffffffffffffffffff1673ffffffffffffffffffffffffffffffffffffffff16815260200190815260200160002060006101000a81548160ff02191690831515021790555060013390806001815401808255809150509060018203906000526020600020016000909192909190916101000a81548173ffffffffffffffffffffffffffffffffffffffff021916908373ffffffffffffffffffffffffffffffffffffffff16021790555050600260008281526020019081526020016000206002016000815480929190600101919050555050565b600460009054906101000a900473ffffffffffffffffffffffffffffffffffffffff1673ffffffffffffffffffffffffffffffffffffffff163373ffffffffffffffffffffffffffffffffffffffff16141515610663576040517f08c379a00000000000000000000000000000000000000000000000000000000081526004018080602001828103825260208152602001807f4f6e6c79206f776e65722063616e2064656c6574652063616e6469646174657381525060200191505060405180910390fd5b6002600082815260200190815260200160002060030160009054906101000a900460ff1615156106fb576040517f08c379a00000000000000000000000000000000000000000000000000000000081526004018080602001828103825260188152602001807f43616e64696461746520646f6573206e6f74206578697374000000000000000081525060200191505060405180910390fd5b600354811415156107b65760026000600354815260200190815260200160002060026000838152602001908152602001600020600082015481600001556001820181600101908054600181600116156101000203166002900461075f929190610c72565b50600282015481600201556003820160009054906101000a900460ff168160030160006101000a81548160ff0219169083151502179055509050508060026000838152602001908152602001600020600001819055505b6002600060035481526020019081526020016000206000808201600090556001820160006107e49190610cf9565b60028201600090556003820160006101000a81549060ff0219169055505060036000815480929190600190039190505550600354811115156108505760016002600083815260200190815260200160002060030160006101000a81548160ff0219169083151502179055505b610858610a93565b610860610b54565b50565b6002602052806000526040600020600091509050806000015490806001018054600181600116156101000203166002900480601f0160208091040260200160405190810160405280929190818152602001828054600181600116156101000203166002900480156109155780601f106108ea57610100808354040283529160200191610915565b820191906000526020600020905b8154815290600101906020018083116108f857829003601f168201915b5050505050908060020154908060030160009054906101000a900460ff16905084565b60018181548110151561094757fe5b906000526020600020016000915054906101000a900473ffffffffffffffffffffffffffffffffffffffff1681565b600460009054906101000a900473ffffffffffffffffffffffffffffffffffffffff1673ffffffffffffffffffffffffffffffffffffffff163373ffffffffffffffffffffffffffffffffffffffff16141515610a3b576040517f08c379a000000000000000000000000000000000000000000000000000000000815260040180806020018281038252601d8152602001807f4f6e6c79206f776e65722063616e206164642063616e6469646174657300000081525060200191505060405180910390fd5b610a4481610bbc565b50565b600460009054906101000a900473ffffffffffffffffffffffffffffffffffffffff1681565b60006020528060005260406000206000915054906101000a900460ff1681565b60035481565b60008090505b600180549050811015610b43576000806000600184815481101515610aba57fe5b9060005260206000200160009054906101000a900473ffffffffffffffffffffffffffffffffffffffff1673ffffffffffffffffffffffffffffffffffffffff1673ffffffffffffffffffffffffffffffffffffffff16815260200190815260200160002060006101000a81548160ff0219169083151502179055508080600101915050610a99565b60016000610b519190610d41565b50565b6000600190505b60035481111515610bb9576002600082815260200190815260200160002060030160009054906101000a900460ff1615610bac57600060026000838152602001908152602001600020600201819055505b8080600101915050610b5b565b50565b60036000815480929190600101919050555060806040519081016040528060035481526020018281526020016000815260200160011515815250600260006003548152602001908152602001600020600082015181600001556020820151816001019080519060200190610c31929190610d62565b506040820151816002015560608201518160030160006101000a81548160ff021916908315150217905550905050610c67610a93565b610c6f610b54565b50565b828054600181600116156101000203166002900490600052602060002090601f016020900481019282601f10610cab5780548555610ce8565b82800160010185558215610ce857600052602060002091601f016020900482015b82811115610ce7578254825591600101919060010190610ccc565b5b509050610cf59190610de2565b5090565b50805460018160011615610100020316600290046000825580601f10610d1f5750610d3e565b601f016020900490600052602060002090810190610d3d9190610de2565b5b50565b5080546000825590600052602060002090810190610d5f9190610de2565b50565b828054600181600116156101000203166002900490600052602060002090601f016020900481019282601f10610da357805160ff1916838001178555610dd1565b82800160010185558215610dd1579182015b82811115610dd0578251825591602001919060010190610db5565b5b509050610dde9190610de2565b5090565b610e0491905b80821115610e00576000816000905550600101610de8565b5090565b905600a165627a7a723058201c77974d3290181059beb80739e37a848675bbb092f721da92670d393b5f59a10029",
  "source": "// SPDX-License-Identifier: MIT\r\npragma solidity >=0.4.22 <0.9.0;\r\n\r\ncontract Voting {\r\n    struct Candidate {\r\n        uint id;\r\n        string name;\r\n        uint voteCount;\r\n        bool exists;\r\n    }\r\n\r\n    mapping(address => bool) public voters; // status voting tiap address\r\n    address[] public voterList; // daftar voter untuk reset\r\n    mapping(uint => Candidate) public candidates;\r\n    uint public candidateCount;\r\n    address public owner;\r\n\r\n    constructor() {\r\n        owner = msg.sender;\r\n        _addCandidate(\"Candidate 1\");\r\n        _addCandidate(\"Candidate 2\");\r\n        _addCandidate(\"Candidate 3\");\r\n    }\r\n\r\n    // hanya untuk internal\r\n    function _addCandidate(string memory _name) internal {\r\n        candidateCount++;\r\n        candidates[candidateCount] = Candidate({\r\n            id: candidateCount,\r\n            name: _name,\r\n            voteCount: 0,\r\n            exists: true\r\n        });\r\n        _resetVoters();\r\n        _resetVotes();\r\n    }\r\n\r\n    function createCandidate(string memory _name) public {\r\n        require(msg.sender == owner, \"Only owner can add candidates\");\r\n        _addCandidate(_name);\r\n    }\r\n\r\n    function deleteCandidate(uint _candidateId) public {\r\n        require(msg.sender == owner, \"Only owner can delete candidates\");\r\n        require(candidates[_candidateId].exists, \"Candidate does not exist\");\r\n\r\n        // swap and pop\r\n        if (_candidateId != candidateCount) {\r\n            candidates[_candidateId] = candidates[candidateCount];\r\n            candidates[_candidateId].id = _candidateId;\r\n        }\r\n\r\n        delete candidates[candidateCount];\r\n        candidateCount--;\r\n\r\n        if (_candidateId <= candidateCount) {\r\n            candidates[_candidateId].exists = true;\r\n        }\r\n\r\n        _resetVoters();\r\n        _resetVotes();\r\n    }\r\n\r\n    function vote(uint _candidateId) public {\r\n        require(!voters[msg.sender], \"You have already voted.\");\r\n        require(candidates[_candidateId].exists, \"Candidate does not exist\");\r\n\r\n        voters[msg.sender] = true;\r\n        voterList.push(msg.sender); // catat voter\r\n        candidates[_candidateId].voteCount++;\r\n    }\r\n\r\n    // Reset semua voter menjadi belum vote\r\n    function _resetVoters() internal {\r\n        for (uint i = 0; i < voterList.length; i++) {\r\n            voters[voterList[i]] = false;\r\n        }\r\n        delete voterList; // kosongkan daftar voter\r\n    }\r\n\r\n    // Reset voteCount semua kandidat\r\n    function _resetVotes() internal {\r\n        for (uint i = 1; i <= candidateCount; i++) {\r\n            if(candidates[i].exists){\r\n                candidates[i].voteCount = 0;\r\n            }\r\n        }\r\n    }\r\n}\r\n",
  "sourcePath": "D:\\program\\smt7\\Test\\election\\vote\\contracts\\Voting.sol",
  "compiler": {
    "name": "solc",
    "version": "0.4.22+commit.4cb486ee.Emscripten.clang"
  },
  "schemaVersion": "3.4.16",
  "updatedAt": "2025-08-13T10:37:30.846Z",
  "networkType": "ethereum",
  "devdoc": {
    "methods": {}
  },
  "userdoc": {
    "methods": {}
  }
}